:0100000000FF
:0100010000FE
:0100020000FD
:0100030000FC
:0100040000FB
:0100050000FA
:0100060000F9
:0100070000F8
:0100080000F7
:0100090000F6
:01000A0000F5
:01000B0000F4
:01000C0000F3
:01000D0000F2
:01000E0000F1
:01000F0007E9
:0100100007E8
:0100110007E7
:0100120007E6
:0100130007E5
:0100140007E4
:0100150007E3
:0100160007E2
:0100170007E1
:0100180007E0
:0100190007DF
:01001A0007DE
:01001B0007DD
:01001C0007DC
:01001D0007DB
:01001E0007DA
:01001F0007D9
:0100200007D8
:0100210007D7
:0100220007D6
:0100230007D5
:0100240007D4
:0100250007D3
:0100260007D2
:0100270007D1
:0100280007D0
:0100290007CF
:01002A0007CE
:01002B0007CD
:01002C0007CC
:01002D0007CB
:01002E0007CA
:01002F0007C9
:0100300007C8
:0100310007C7
:0100320007C6
:0100330007C5
:0100340007C4
:0100350007C3
:0100360007C2
:0100370007C1
:0100380007C0
:0100390007BF
:01003A0007BE
:01003B0007BD
:01003C0007BC
:01003D0007BB
:01003E0007BA
:01003F0007B9
:0100400007B8
:0100410007B7
:0100420007B6
:0100430007B5
:0100440007B4
:0100450007B3
:0100460007B2
:0100470007B1
:0100480007B0
:0100490007AF
:01004A0007AE
:01004B0007AD
:01004C0007AC
:01004D0007AB
:01004E0007AA
:01004F0007A9
:0100500007A8
:0100510007A7
:0100520007A6
:0100530007A5
:0100540007A4
:0100550007A3
:0100560007A2
:0100570007A1
:0100580007A0
:01005900079F
:01005A00079E
:01005B00079D
:01005C00079C
:01005D00079B
:01005E00079A
:01005F000799
:010060000798
:010061000797
:010062000796
:010063000795
:010064000794
:010065000793
:010066000792
:010067000791
:010068000790
:01006900078F
:01006A00078E
:01006B00078D
:01006C00078C
:01006D00078B
:01006E00078A
:01006F000789
:010070000788
:010071000787
:010072000786
:010073000785
:010074000784
:010075000783
:010076000782
:010077000781
:010078000780
:01007900077F
:01007A00077E
:01007B00077D
:01007C00077C
:01007D00077B
:01007E00077A
:01007F000779
:010080000778
:010081000777
:010082000776
:010083000775
:010084000774
:010085000773
:010086000772
:010087000771
:010088000770
:01008900076F
:01008A00076E
:01008B00076D
:01008C00076C
:01008D00076B
:01008E00076A
:01008F000769
:010090000768
:010091000767
:010092000766
:010093000765
:010094000764
:010095000763
:010096000762
:010097000761
:010098000760
:01009900075F
:01009A00075E
:01009B00075D
:01009C00075C
:01009D00075B
:01009E00075A
:01009F000759
:0100A0000758
:0100A1000757
:0100A200005D
:0100A300005C
:0100A400005B
:0100A500005A
:0100A6000059
:0100A7000058
:0100A8000057
:0100A9000056
:0100AA000055
:0100AB000054
:0100AC000053
:0100AD000052
:0100AE000051
:0100AF000050
:0100B000004F
:0100B100004E
:0100B200004D
:0100B300004C
:0100B400004B
:0100B500004A
:0100B6000049
:0100B7000048
:0100B8000047
:0100B9000046
:0100BA000045
:0100BB000044
:0100BC000043
:0100BD000042
:0100BE000041
:0100BF000040
:0100C000003F
:0100C1000737
:0100C2000736
:0100C3000735
:0100C4000734
:0100C5000733
:0100C6000732
:0100C7000731
:0100C8000730
:0100C900072F
:0100CA00072E
:0100CB00072D
:0100CC00072C
:0100CD00072B
:0100CE00072A
:0100CF000729
:0100D0000728
:0100D1000727
:0100D2000726
:0100D3000725
:0100D4000724
:0100D5000723
:0100D6000722
:0100D7000721
:0100D8000720
:0100D900071F
:0100DA00071E
:0100DB00071D
:0100DC00071C
:0100DD00071B
:0100DE00071A
:0100DF000719
:0100E0000718
:0100E1000717
:0100E2000716
:0100E3000715
:0100E4000714
:0100E5000713
:0100E6000712
:0100E7000711
:0100E8000710
:0100E900070F
:0100EA00070E
:0100EB00070D
:0100EC00070C
:0100ED00070B
:0100EE00070A
:0100EF000709
:0100F0000708
:0100F1000707
:0100F2000706
:0100F3000705
:0100F4000704
:0100F5000703
:0100F6000702
:0100F7000701
:0100F8000700
:0100F90007FF
:0100FA0007FE
:0100FB0007FD
:0100FC0007FC
:0100FD0007FB
:0100FE0007FA
:0100FF0007F9
:0101000007F7
:0101010007F6
:0101020007F5
:0101030007F4
:0101040007F3
:0101050007F2
:0101060007F1
:0101070007F0
:0101080007EF
:0101090007EE
:01010A0007ED
:01010B0007EC
:01010C0007EB
:01010D0007EA
:01010E0007E9
:01010F0007E8
:0101100007E7
:0101110007E6
:0101120007E5
:0101130007E4
:0101140007E3
:0101150007E2
:0101160007E1
:0101170007E0
:0101180007DF
:0101190007DE
:01011A0007DD
:01011B0007DC
:01011C0007DB
:01011D0007DA
:01011E0007D9
:01011F0007D8
:0101200007D7
:0101210007D6
:0101220007D5
:0101230007D4
:0101240007D3
:0101250007D2
:0101260007D1
:0101270007D0
:0101280007CF
:0101290007CE
:01012A0007CD
:01012B0007CC
:01012C0007CB
:01012D0007CA
:01012E0007C9
:01012F0007C8
:0101300007C7
:0101310007C6
:0101320007C5
:0101330007C4
:0101340007C3
:0101350007C2
:0101360007C1
:0101370007C0
:0101380007BF
:0101390007BE
:01013A0007BD
:01013B0007BC
:01013C0007BB
:01013D0007BA
:01013E0007B9
:01013F0007B8
:0101400007B7
:0101410007B6
:0101420007B5
:0101430007B4
:0101440007B3
:0101450007B2
:0101460007B1
:0101470007B0
:0101480007AF
:0101490007AE
:01014A0007AD
:01014B0007AC
:01014C0007AB
:01014D0007AA
:01014E0007A9
:01014F0007A8
:0101500007A7
:0101510007A6
:0101520007A5
:0101530007A4
:0101540007A3
:0101550007A2
:0101560007A1
:0101570007A0
:0101580000A6
:0101590000A5
:01015A0000A4
:01015B0000A3
:01015C0000A2
:01015D0000A1
:01015E0000A0
:01015F00009F
:01016000009E
:01016100009D
:01016200009C
:01016300009B
:01016400009A
:010165000099
:010166000098
:010167000097
:010168000096
:010169000095
:01016A000094
:01016B000093
:01016C000092
:01016D000091
:01016E000090
:01016F00008F
:01017000008E
:01017100008D
:01017200008C
:010173000784
:010174000783
:010175000782
:010176000781
:010177000780
:01017800077F
:01017900077E
:01017A000084
:01017B000083
:01017C000082
:01017D000081
:01017E000080
:01017F00007F
:01018000007E
:01018100007D
:01018200007C
:01018300007B
:01018400007A
:010185000079
:010186000078
:010187000077
:010188000076
:010189000075
:01018A000074
:01018B000073
:01018C000072
:01018D000071
:01018E000070
:01018F00006F
:01019000006E
:01019100006D
:01019200006C
:01019300006B
:01019400006A
:010195000069
:010196000068
:010197000067
:010198000066
:010199000065
:01019A000064
:01019B000063
:01019C000062
:01019D000061
:01019E000060
:01019F00005F
:0101A000005E
:0101A100005D
:0101A200005C
:0101A300005B
:0101A400005A
:0101A5000059
:0101A6000058
:0101A7000057
:0101A8000056
:0101A9000055
:0101AA000054
:0101AB000053
:0101AC000052
:0101AD000051
:0101AE000050
:0101AF00004F
:0101B000004E
:0101B100004D
:0101B200004C
:0101B300004B
:0101B400004A
:0101B5000049
:0101B6000048
:0101B7000047
:0101B8000046
:0101B9000045
:0101BA000044
:0101BB000043
:0101BC000042
:0101BD000041
:0101BE000040
:0101BF00003F
:0101C000003E
:0101C100003D
:0101C200003C
:0101C300003B
:0101C400003A
:0101C5000039
:0101C6000038
:0101C7000037
:0101C8000036
:0101C9000035
:0101CA000034
:0101CB000033
:0101CC000032
:0101CD000031
:0101CE000030
:0101CF00002F
:0101D000002E
:0101D100002D
:0101D200002C
:0101D300002B
:0101D400002A
:0101D5000029
:0101D6000028
:0101D7000027
:0101D8000026
:0101D9000025
:0101DA000024
:0101DB000023
:0101DC000022
:0101DD000021
:0101DE000020
:0101DF00001F
:0101E000001E
:0101E100001D
:0101E200001C
:0101E300001B
:0101E400001A
:0101E5000019
:0101E6000018
:0101E7000017
:0101E8000016
:0101E9000015
:0101EA000014
:0101EB000013
:0101EC000012
:0101ED000011
:0101EE000010
:0101EF00000F
:0101F000000E
:0101F100000D
:0101F200000C
:0101F300000B
:0101F400000A
:0101F5000009
:0101F6000008
:0101F7000007
:0101F8000006
:0101F9000005
:0101FA000004
:0101FB000003
:0101FC000002
:0101FD000001
:0101FE000000
:0101FF0000FF
:0102000000FD
:0102010000FC
:0102020000FB
:0102030000FA
:0102040000F9
:0102050000F8
:0102060000F7
:0102070007EF
:0102080007EE
:0102090007ED
:01020A0007EC
:01020B0007EB
:01020C0007EA
:01020D0007E9
:01020E0000EF
:01020F0000EE
:0102100000ED
:0102110000EC
:0102120000EB
:0102130000EA
:0102140000E9
:0102150000E8
:0102160000E7
:0102170000E6
:0102180000E5
:0102190000E4
:01021A0000E3
:01021B0000E2
:01021C0000E1
:01021D0000E0
:01021E0000DF
:01021F0000DE
:0102200000DD
:0102210000DC
:0102220000DB
:0102230000DA
:0102240000D9
:0102250000D8
:0102260007D0
:0102270007CF
:0102280007CE
:0102290007CD
:01022A0007CC
:01022B0000D2
:01022C0000D1
:01022D0000D0
:01022E0000CF
:01022F0000CE
:0102300000CD
:0102310000CC
:0102320000CB
:0102330000CA
:0102340000C9
:0102350000C8
:0102360000C7
:0102370000C6
:0102380000C5
:0102390000C4
:01023A0000C3
:01023B0000C2
:01023C0000C1
:01023D0000C0
:01023E0000BF
:01023F0000BE
:0102400000BD
:0102410000BC
:0102420000BB
:0102430000BA
:0102440000B9
:0102450000B8
:0102460000B7
:0102470000B6
:0102480000B5
:0102490000B4
:01024A0000B3
:01024B0000B2
:01024C0000B1
:01024D0000B0
:01024E0000AF
:01024F0000AE
:0102500000AD
:0102510000AC
:0102520000AB
:0102530000AA
:0102540000A9
:0102550000A8
:0102560000A7
:0102570000A6
:0102580000A5
:0102590000A4
:01025A0000A3
:01025B0000A2
:01025C0000A1
:01025D0000A0
:01025E00009F
:01025F00009E
:01026000009D
:01026100009C
:01026200009B
:01026300009A
:010264000099
:010265000098
:010266000097
:010267000096
:010268000095
:010269000094
:01026A000093
:01026B000092
:01026C000091
:01026D000090
:01026E00008F
:01026F00008E
:01027000008D
:01027100008C
:01027200008B
:01027300008A
:010274000089
:010275000088
:010276000087
:010277000086
:010278000085
:010279000084
:01027A000083
:01027B000082
:01027C000081
:01027D000080
:01027E00007F
:01027F00007E
:01028000007D
:01028100007C
:01028200007B
:01028300007A
:010284000079
:010285000078
:010286000077
:010287000076
:010288000075
:010289000074
:01028A000073
:01028B000072
:01028C000071
:01028D000070
:01028E00006F
:01028F00006E
:01029000006D
:01029100006C
:01029200006B
:01029300006A
:010294000069
:010295000068
:010296000067
:010297000066
:010298000065
:010299000064
:01029A000063
:01029B000062
:01029C000061
:01029D000060
:01029E00005F
:01029F00005E
:0102A000005D
:0102A100005C
:0102A200005B
:0102A300005A
:0102A4000059
:0102A5000058
:0102A6000057
:0102A7000056
:0102A8000055
:0102A9000054
:0102AA000053
:0102AB000052
:0102AC000051
:0102AD000050
:0102AE00004F
:0102AF00004E
:0102B000004D
:0102B100004C
:0102B200004B
:0102B300004A
:0102B4000049
:0102B5000048
:0102B6000047
:0102B7000046
:0102B8000045
:0102B9000044
:0102BA000043
:0102BB000042
:0102BC000041
:0102BD000739
:0102BE000738
:0102BF000737
:0102C0000736
:0102C1000735
:0102C2000734
:0102C300003A
:0102C4000039
:0102C5000038
:0102C6000037
:0102C7000036
:0102C8000035
:0102C9000034
:0102CA000033
:0102CB000032
:0102CC000031
:0102CD000030
:0102CE00002F
:0102CF00002E
:0102D000002D
:0102D100002C
:0102D200002B
:0102D300002A
:0102D4000029
:0102D5000028
:0102D6000027
:0102D7000026
:0102D8000025
:0102D900071D
:0102DA00071C
:0102DB00071B
:0102DC00071A
:0102DD000719
:0102DE00001F
:0102DF00001E
:0102E000001D
:0102E100001C
:0102E200001B
:0102E300001A
:0102E4000019
:0102E5000018
:0102E6000017
:0102E7000016
:0102E8000015
:0102E9000014
:0102EA000013
:0102EB000012
:0102EC000011
:0102ED000010
:0102EE00000F
:0102EF00000E
:0102F000000D
:0102F100000C
:0102F200000B
:0102F300000A
:0102F4000009
:0102F5000008
:0102F6000007
:0102F7000006
:0102F8000005
:0102F9000004
:0102FA000003
:0102FB000002
:0102FC000001
:0102FD000000
:0102FE0000FF
:0102FF0000FE
:0103000000FC
:0103010000FB
:0103020000FA
:0103030000F9
:0103040000F8
:0103050000F7
:0103060000F6
:0103070000F5
:0103080000F4
:0103090000F3
:01030A0000F2
:01030B0000F1
:01030C0000F0
:01030D0000EF
:01030E0000EE
:01030F0000ED
:0103100000EC
:0103110000EB
:0103120000EA
:0103130000E9
:0103140000E8
:0103150000E7
:0103160000E6
:0103170000E5
:0103180000E4
:0103190000E3
:01031A0000E2
:01031B0000E1
:01031C0000E0
:01031D0000DF
:01031E0000DE
:01031F0000DD
:0103200000DC
:0103210000DB
:0103220000DA
:0103230000D9
:0103240000D8
:0103250000D7
:0103260000D6
:0103270000D5
:0103280000D4
:0103290000D3
:01032A0000D2
:01032B0000D1
:01032C0000D0
:01032D0000CF
:01032E0000CE
:01032F0000CD
:0103300000CC
:0103310000CB
:0103320000CA
:0103330000C9
:0103340000C8
:0103350000C7
:0103360000C6
:0103370000C5
:0103380000C4
:0103390000C3
:01033A0000C2
:01033B0000C1
:01033C0000C0
:01033D0000BF
:01033E0000BE
:01033F0000BD
:0103400000BC
:0103410000BB
:0103420000BA
:0103430000B9
:0103440000B8
:0103450000B7
:0103460000B6
:0103470000B5
:0103480000B4
:0103490000B3
:01034A0000B2
:01034B0000B1
:01034C0000B0
:01034D0000AF
:01034E0000AE
:01034F0000AD
:0103500000AC
:0103510000AB
:0103520000AA
:0103530000A9
:0103540000A8
:0103550000A7
:0103560000A6
:0103570000A5
:0103580000A4
:0103590000A3
:01035A0000A2
:01035B0000A1
:01035C0000A0
:01035D00009F
:01035E00009E
:01035F00009D
:01036000009C
:01036100009B
:01036200009A
:010363000099
:010364000098
:010365000097
:010366000096
:010367000095
:010368000094
:010369000093
:01036A000092
:01036B000091
:01036C000090
:01036D00008F
:01036E00008E
:01036F00008D
:01037000008C
:01037100008B
:01037200008A
:010373000782
:010374000781
:010375000780
:01037600077F
:01037700077E
:010378000084
:010379000083
:01037A000082
:01037B000081
:01037C000080
:01037D00007F
:01037E00007E
:01037F00007D
:01038000007C
:01038100007B
:01038200007A
:010383000079
:010384000078
:010385000077
:010386000076
:010387000075
:010388000074
:010389000073
:01038A000072
:01038B000071
:01038C000769
:01038D000768
:01038E000767
:01038F000766
:01039000006C
:01039100006B
:01039200006A
:010393000069
:010394000068
:010395000067
:010396000066
:010397000065
:010398000064
:010399000063
:01039A000062
:01039B000061
:01039C000060
:01039D00005F
:01039E00005E
:01039F00005D
:0103A000005C
:0103A100005B
:0103A200005A
:0103A3000059
:0103A4000058
:0103A5000057
:0103A6000056
:0103A7000055
:0103A8000054
:0103A9000053
:0103AA000052
:0103AB000051
:0103AC000050
:0103AD00004F
:0103AE00004E
:0103AF00004D
:0103B000004C
:0103B100004B
:0103B200004A
:0103B3000049
:0103B4000048
:0103B5000047
:0103B6000046
:0103B7000045
:0103B8000044
:0103B9000043
:0103BA000042
:0103BB000041
:0103BC000040
:0103BD00003F
:0103BE00003E
:0103BF00003D
:0103C000003C
:0103C100003B
:0103C200003A
:0103C3000039
:0103C4000038
:0103C5000037
:0103C6000036
:0103C7000035
:0103C8000034
:0103C9000033
:0103CA000032
:0103CB000031
:0103CC000030
:0103CD00002F
:0103CE00002E
:0103CF00002D
:0103D000002C
:0103D100002B
:0103D200002A
:0103D3000029
:0103D4000028
:0103D5000027
:0103D6000026
:0103D7000025
:0103D8000024
:0103D9000023
:0103DA000022
:0103DB000021
:0103DC000020
:0103DD00001F
:0103DE00001E
:0103DF00001D
:0103E000001C
:0103E100001B
:0103E200001A
:0103E3000019
:0103E4000018
:0103E5000017
:0103E6000016
:0103E7000015
:0103E8000014
:0103E9000013
:0103EA000012
:0103EB000011
:0103EC000010
:0103ED00000F
:0103EE00000E
:0103EF00000D
:0103F000000C
:0103F100000B
:0103F200000A
:0103F3000009
:0103F4000008
:0103F5000007
:0103F6000006
:0103F7000005
:0103F8000004
:0103F9000003
:0103FA000002
:0103FB000001
:0103FC000000
:0103FD0000FF
:0103FE0000FE
:0103FF0000FD
:0104000000FB
:0104010000FA
:0104020000F9
:0104030000F8
:0104040000F7
:0104050000F6
:0104060000F5
:0104070000F4
:0104080000F3
:0104090000F2
:01040A0000F1
:01040B0000F0
:01040C0000EF
:01040D0000EE
:01040E0000ED
:01040F0000EC
:0104100000EB
:0104110000EA
:0104120000E9
:0104130000E8
:0104140000E7
:0104150000E6
:0104160000E5
:0104170000E4
:0104180000E3
:0104190000E2
:01041A0000E1
:01041B0000E0
:01041C0000DF
:01041D0000DE
:01041E0000DD
:01041F0000DC
:0104200000DB
:0104210000DA
:0104220000D9
:0104230000D8
:0104240000D7
:0104250000D6
:0104260000D5
:0104270000D4
:0104280000D3
:0104290007CB
:01042A0007CA
:01042B0007C9
:01042C0007C8
:01042D0000CE
:01042E0000CD
:01042F0000CC
:0104300000CB
:0104310000CA
:0104320000C9
:0104330000C8
:0104340000C7
:0104350000C6
:0104360000C5
:0104370000C4
:0104380000C3
:0104390000C2
:01043A0000C1
:01043B0000C0
:01043C0000BF
:01043D0000BE
:01043E0000BD
:01043F0007B5
:0104400007B4
:0104410007B3
:0104420007B2
:0104430000B8
:0104440000B7
:0104450000B6
:0104460000B5
:0104470000B4
:0104480000B3
:0104490000B2
:01044A0007AA
:01044B0007A9
:01044C0007A8
:01044D0007A7
:01044E0007A6
:01044F0007A5
:0104500007A4
:0104510007A3
:0104520007A2
:0104530007A1
:0104540007A0
:01045500079F
:01045600079E
:01045700079D
:01045800079C
:01045900079B
:01045A00079A
:01045B000799
:01045C000798
:01045D000797
:01045E000796
:01045F000795
:010460000794
:010461000793
:010462000792
:010463000791
:010464000790
:01046500078F
:01046600078E
:01046700078D
:01046800078C
:01046900078B
:01046A00078A
:01046B000789
:01046C000788
:01046D000787
:01046E000786
:01046F000785
:010470000784
:010471000783
:010472000782
:010473000781
:010474000780
:01047500077F
:01047600077E
:01047700077D
:01047800077C
:01047900077B
:01047A00077A
:01047B000779
:01047C000778
:01047D000777
:01047E000776
:01047F000775
:010480000774
:010481000773
:010482000772
:010483000771
:010484000770
:01048500076F
:01048600076E
:01048700076D
:01048800076C
:01048900076B
:01048A00076A
:01048B000769
:01048C000768
:01048D000767
:01048E000766
:01048F000765
:010490000764
:010491000763
:010492000762
:010493000761
:010494000760
:01049500075F
:01049600075E
:01049700075D
:01049800075C
:01049900075B
:01049A00075A
:01049B000759
:01049C000758
:01049D000757
:01049E000756
:01049F000755
:0104A0000754
:0104A1000753
:0104A2000752
:0104A3000751
:0104A4000750
:0104A500074F
:0104A600074E
:0104A700074D
:0104A800074C
:0104A900074B
:0104AA00074A
:0104AB000749
:0104AC000748
:0104AD000747
:0104AE000746
:0104AF000745
:0104B0000744
:0104B1000743
:0104B2000742
:0104B3000741
:0104B4000740
:0104B500073F
:0104B600073E
:0104B700073D
:0104B800073C
:0104B900073B
:0104BA00073A
:0104BB000739
:0104BC000738
:0104BD000737
:0104BE000736
:0104BF000735
:0104C0000734
:0104C1000733
:0104C2000732
:0104C3000731
:0104C4000730
:0104C500072F
:0104C600072E
:0104C700072D
:0104C800072C
:0104C900072B
:0104CA00072A
:0104CB000729
:0104CC000728
:0104CD000727
:0104CE000726
:0104CF000725
:0104D0000724
:0104D1000723
:0104D2000722
:0104D3000721
:0104D4000720
:0104D500071F
:0104D600071E
:0104D7000024
:0104D8000023
:0104D9000022
:0104DA000021
:0104DB000020
:0104DC00001F
:0104DD00001E
:0104DE000716
:0104DF000715
:0104E0000714
:0104E1000713
:0104E2000019
:0104E3000018
:0104E4000017
:0104E5000016
:0104E6000015
:0104E7000014
:0104E8000013
:0104E9000012
:0104EA000011
:0104EB000010
:0104EC00000F
:0104ED00000E
:0104EE00000D
:0104EF00000C
:0104F000000B
:0104F100000A
:0104F2000009
:0104F3000701
:0104F4000700
:0104F50007FF
:0104F6000005
:0104F7000004
:0104F8000003
:0104F9000002
:0104FA000001
:0104FB000000
:0104FC0007F8
:0104FD0007F7
:0104FE0000FD
:0104FF0000FC
:0105000000FA
:0105010000F9
:0105020000F8
:0105030000F7
:0105040000F6
:0105050000F5
:0105060000F4
:0105070000F3
:0105080000F2
:0105090000F1
:01050A0000F0
:01050B0000EF
:01050C0000EE
:01050D0000ED
:01050E0000EC
:01050F0000EB
:0105100000EA
:0105110000E9
:0105120000E8
:0105130000E7
:0105140000E6
:0105150000E5
:0105160000E4
:0105170000E3
:0105180000E2
:0105190000E1
:01051A0000E0
:01051B0000DF
:01051C0000DE
:01051D0000DD
:01051E0000DC
:01051F0000DB
:0105200000DA
:0105210000D9
:0105220000D8
:0105230000D7
:0105240000D6
:0105250000D5
:0105260000D4
:0105270000D3
:0105280000D2
:0105290000D1
:01052A0000D0
:01052B0000CF
:01052C0000CE
:01052D0000CD
:01052E0000CC
:01052F0000CB
:0105300000CA
:0105310000C9
:0105320000C8
:0105330000C7
:0105340000C6
:0105350000C5
:0105360000C4
:0105370000C3
:0105380000C2
:0105390000C1
:01053A0000C0
:01053B0000BF
:01053C0000BE
:01053D0000BD
:01053E0000BC
:01053F0000BB
:0105400000BA
:0105410000B9
:0105420000B8
:0105430000B7
:0105440000B6
:0105450000B5
:0105460000B4
:0105470000B3
:0105480000B2
:0105490000B1
:01054A0000B0
:01054B0000AF
:01054C0000AE
:01054D0000AD
:01054E0000AC
:01054F0000AB
:0105500000AA
:0105510000A9
:0105520000A8
:0105530000A7
:0105540000A6
:0105550000A5
:0105560000A4
:0105570000A3
:0105580000A2
:0105590000A1
:01055A0000A0
:01055B00009F
:01055C00009E
:01055D00009D
:01055E00009C
:01055F00009B
:01056000009A
:010561000099
:010562000098
:010563000097
:010564000096
:010565000095
:010566000094
:010567000093
:010568000092
:010569000091
:01056A000090
:01056B00008F
:01056C00008E
:01056D00008D
:01056E00008C
:01056F00008B
:01057000008A
:010571000089
:010572000088
:010573000087
:010574000086
:010575000085
:010576000084
:010577000083
:010578000082
:010579000081
:01057A000080
:01057B00007F
:01057C00007E
:01057D00007D
:01057E00007C
:01057F00007B
:01058000007A
:010581000079
:010582000078
:010583000077
:010584000076
:010585000075
:010586000074
:010587000073
:010588000072
:010589000071
:01058A000070
:01058B000768
:01058C000767
:01058D00006D
:01058E00006C
:01058F00006B
:01059000006A
:010591000069
:010592000068
:010593000760
:01059400075F
:01059500075E
:010596000064
:010597000063
:010598000062
:010599000061
:01059A000060
:01059B00005F
:01059C00005E
:01059D00005D
:01059E00005C
:01059F00005B
:0105A000005A
:0105A1000059
:0105A2000058
:0105A3000057
:0105A4000056
:0105A5000055
:0105A600074D
:0105A700074C
:0105A800074B
:0105A900074A
:0105AA000050
:0105AB00004F
:0105AC00004E
:0105AD00004D
:0105AE000745
:0105AF000744
:0105B000004A
:0105B1000049
:0105B2000048
:0105B3000047
:0105B4000046
:0105B5000045
:0105B6000044
:0105B7000043
:0105B8000042
:0105B9000041
:0105BA000040
:0105BB00003F
:0105BC00003E
:0105BD00003D
:0105BE00003C
:0105BF00003B
:0105C000003A
:0105C1000039
:0105C2000038
:0105C3000037
:0105C4000036
:0105C5000035
:0105C6000034
:0105C7000033
:0105C8000032
:0105C9000031
:0105CA000030
:0105CB00002F
:0105CC00002E
:0105CD00002D
:0105CE00002C
:0105CF00002B
:0105D000002A
:0105D1000029
:0105D2000028
:0105D3000027
:0105D4000026
:0105D5000025
:0105D6000024
:0105D7000023
:0105D8000022
:0105D9000021
:0105DA000020
:0105DB00001F
:0105DC00001E
:0105DD00001D
:0105DE00001C
:0105DF00001B
:0105E000001A
:0105E1000019
:0105E2000018
:0105E3000017
:0105E4000016
:0105E5000015
:0105E6000014
:0105E7000013
:0105E8000012
:0105E9000011
:0105EA000010
:0105EB00000F
:0105EC00000E
:0105ED00000D
:0105EE00000C
:0105EF00000B
:0105F000000A
:0105F1000009
:0105F2000008
:0105F3000007
:0105F4000006
:0105F5000005
:0105F6000004
:0105F7000003
:0105F8000002
:0105F9000001
:0105FA000000
:0105FB0000FF
:0105FC0000FE
:0105FD0000FD
:0105FE0000FC
:0105FF0000FB
:0106000000F9
:0106010000F8
:0106020000F7
:0106030000F6
:0106040000F5
:0106050000F4
:0106060000F3
:0106070000F2
:0106080000F1
:0106090000F0
:01060A0000EF
:01060B0000EE
:01060C0000ED
:01060D0000EC
:01060E0000EB
:01060F0000EA
:0106100000E9
:0106110000E8
:0106120000E7
:0106130000E6
:0106140000E5
:0106150000E4
:0106160000E3
:0106170000E2
:0106180000E1
:0106190000E0
:01061A0000DF
:01061B0000DE
:01061C0000DD
:01061D0000DC
:01061E0000DB
:01061F0000DA
:0106200000D9
:0106210000D8
:0106220000D7
:0106230000D6
:0106240000D5
:0106250000D4
:0106260000D3
:0106270000D2
:0106280000D1
:0106290000D0
:01062A0000CF
:01062B0000CE
:01062C0000CD
:01062D0000CC
:01062E0000CB
:01062F0000CA
:0106300000C9
:0106310000C8
:0106320000C7
:0106330000C6
:0106340000C5
:0106350000C4
:0106360000C3
:0106370000C2
:0106380000C1
:0106390000C0
:01063A0000BF
:01063B0000BE
:01063C0000BD
:01063D0000BC
:01063E0000BB
:01063F0000BA
:0106400000B9
:0106410007B1
:0106420007B0
:0106430000B6
:0106440000B5
:0106450000B4
:0106460000B3
:0106470007AB
:0106480007AA
:0106490007A9
:01064A0007A8
:01064B0000AE
:01064C0000AD
:01064D0000AC
:01064E0000AB
:01064F0000AA
:0106500000A9
:0106510000A8
:0106520000A7
:0106530000A6
:0106540000A5
:0106550000A4
:0106560000A3
:0106570000A2
:0106580000A1
:0106590000A0
:01065A000798
:01065B000797
:01065C000796
:01065D00009C
:01065E00009B
:01065F00009A
:010660000099
:010661000791
:010662000097
:010663000096
:010664000095
:010665000094
:010666000093
:010667000092
:010668000091
:010669000090
:01066A00008F
:01066B00008E
:01066C00008D
:01066D00008C
:01066E00008B
:01066F00008A
:010670000089
:010671000088
:010672000087
:010673000086
:010674000085
:010675000084
:010676000083
:010677000082
:010678000081
:010679000080
:01067A00007F
:01067B00007E
:01067C00007D
:01067D00007C
:01067E00007B
:01067F00007A
:010680000079
:010681000078
:010682000077
:010683000076
:010684000075
:010685000074
:010686000073
:010687000072
:010688000071
:010689000070
:01068A00006F
:01068B00006E
:01068C00006D
:01068D00006C
:01068E00006B
:01068F00006A
:010690000069
:010691000068
:010692000067
:010693000066
:010694000065
:010695000064
:010696000063
:010697000062
:010698000061
:010699000060
:01069A00005F
:01069B00005E
:01069C00005D
:01069D00005C
:01069E00005B
:01069F00005A
:0106A0000059
:0106A1000058
:0106A2000057
:0106A3000056
:0106A4000055
:0106A5000054
:0106A6000053
:0106A7000052
:0106A8000051
:0106A9000050
:0106AA00004F
:0106AB00004E
:0106AC00004D
:0106AD00004C
:0106AE00004B
:0106AF00004A
:0106B0000049
:0106B1000048
:0106B2000047
:0106B3000046
:0106B4000045
:0106B5000044
:0106B6000043
:0106B7000042
:0106B8000041
:0106B9000040
:0106BA00003F
:0106BB00003E
:0106BC00003D
:0106BD00003C
:0106BE00003B
:0106BF00003A
:0106C0000039
:0106C1000038
:0106C2000037
:0106C3000036
:0106C4000035
:0106C5000034
:0106C6000033
:0106C7000032
:0106C8000031
:0106C9000030
:0106CA00002F
:0106CB00002E
:0106CC00002D
:0106CD00002C
:0106CE00002B
:0106CF00002A
:0106D0000029
:0106D1000028
:0106D2000027
:0106D3000026
:0106D4000025
:0106D5000024
:0106D6000023
:0106D7000022
:0106D8000021
:0106D9000020
:0106DA00001F
:0106DB00001E
:0106DC00001D
:0106DD00001C
:0106DE00001B
:0106DF00001A
:0106E0000019
:0106E1000018
:0106E2000017
:0106E3000016
:0106E4000015
:0106E5000014
:0106E6000013
:0106E7000012
:0106E8000011
:0106E9000010
:0106EA00000F
:0106EB00000E
:0106EC00000D
:0106ED00000C
:0106EE00000B
:0106EF00000A
:0106F0000009
:0106F1000008
:0106F2000007
:0106F3000006
:0106F4000005
:0106F5000004
:0106F6000003
:0106F70007FB
:0106F8000001
:0106F9000000
:0106FA0000FF
:0106FB0000FE
:0106FC0007F6
:0106FD0007F5
:0106FE0007F4
:0106FF0000FA
:0107000000F8
:0107010000F7
:0107020000F6
:0107030000F5
:0107040000F4
:0107050000F3
:0107060000F2
:0107070000F1
:0107080000F0
:0107090000EF
:01070A0000EE
:01070B0000ED
:01070C0000EC
:01070D0007E4
:01070E0007E3
:01070F0007E2
:0107100000E8
:0107110000E7
:0107120000E6
:0107130000E5
:0107140007DD
:0107150000E3
:0107160000E2
:0107170000E1
:0107180000E0
:0107190000DF
:01071A0000DE
:01071B0000DD
:01071C0000DC
:01071D0000DB
:01071E0000DA
:01071F0000D9
:0107200000D8
:0107210000D7
:0107220000D6
:0107230000D5
:0107240000D4
:0107250000D3
:0107260000D2
:0107270000D1
:0107280000D0
:0107290000CF
:01072A0000CE
:01072B0000CD
:01072C0000CC
:01072D0000CB
:01072E0000CA
:01072F0000C9
:0107300000C8
:0107310000C7
:0107320000C6
:0107330000C5
:0107340000C4
:0107350000C3
:0107360000C2
:0107370000C1
:0107380000C0
:0107390000BF
:01073A0000BE
:01073B0000BD
:01073C0000BC
:01073D0000BB
:01073E0000BA
:01073F0000B9
:0107400000B8
:0107410000B7
:0107420000B6
:0107430000B5
:0107440000B4
:0107450000B3
:0107460000B2
:0107470000B1
:0107480000B0
:0107490000AF
:01074A0000AE
:01074B0000AD
:01074C0000AC
:01074D0000AB
:01074E0000AA
:01074F0000A9
:0107500000A8
:0107510000A7
:0107520000A6
:0107530000A5
:0107540000A4
:0107550000A3
:0107560000A2
:0107570000A1
:0107580000A0
:01075900009F
:01075A00009E
:01075B00009D
:01075C00009C
:01075D00009B
:01075E00009A
:01075F000099
:010760000098
:010761000097
:010762000096
:010763000095
:010764000094
:010765000093
:010766000092
:010767000091
:010768000090
:01076900008F
:01076A00008E
:01076B00008D
:01076C00008C
:01076D00008B
:01076E00008A
:01076F000089
:010770000088
:010771000087
:010772000086
:010773000085
:010774000084
:010775000083
:010776000082
:010777000081
:010778000080
:01077900007F
:01077A00007E
:01077B00007D
:01077C00007C
:01077D00007B
:01077E00007A
:01077F000079
:010780000078
:010781000077
:010782000076
:010783000075
:010784000074
:010785000073
:010786000072
:010787000071
:010788000070
:01078900006F
:01078A00006E
:01078B00006D
:01078C00006C
:01078D00006B
:01078E00006A
:01078F000069
:010790000068
:010791000067
:010792000066
:010793000065
:010794000064
:010795000063
:010796000062
:010797000061
:010798000060
:01079900005F
:01079A00005E
:01079B00005D
:01079C00005C
:01079D00005B
:01079E00005A
:01079F000059
:0107A0000058
:0107A1000057
:0107A2000056
:0107A3000055
:0107A4000054
:0107A5000053
:0107A6000052
:0107A7000051
:0107A8000050
:0107A900004F
:0107AA00004E
:0107AB00004D
:0107AC000745
:0107AD00004B
:0107AE00004A
:0107AF000049
:0107B0000048
:0107B1000740
:0107B200073F
:0107B300073E
:0107B4000044
:0107B5000043
:0107B6000042
:0107B7000041
:0107B8000040
:0107B900003F
:0107BA00003E
:0107BB00003D
:0107BC00003C
:0107BD00003B
:0107BE00003A
:0107BF000039
:0107C0000038
:0107C1000730
:0107C200072F
:0107C300072E
:0107C4000034
:0107C5000033
:0107C6000032
:0107C7000031
:0107C8000729
:0107C900002F
:0107CA00002E
:0107CB00002D
:0107CC00002C
:0107CD00002B
:0107CE00002A
:0107CF000029
:0107D0000028
:0107D1000027
:0107D2000026
:0107D3000025
:0107D4000024
:0107D5000023
:0107D6000022
:0107D7000021
:0107D8000020
:0107D900001F
:0107DA00001E
:0107DB00001D
:0107DC00001C
:0107DD00001B
:0107DE00001A
:0107DF000019
:0107E0000018
:0107E1000017
:0107E2000016
:0107E3000015
:0107E4000014
:0107E5000013
:0107E6000012
:0107E7000011
:0107E8000010
:0107E900000F
:0107EA00000E
:0107EB00000D
:0107EC00000C
:0107ED00000B
:0107EE00000A
:0107EF000009
:0107F0000008
:0107F1000007
:0107F2000006
:0107F3000005
:0107F4000004
:0107F5000003
:0107F6000002
:0107F7000001
:0107F8000000
:0107F90000FF
:0107FA0000FE
:0107FB0000FD
:0107FC0000FC
:0107FD0000FB
:0107FE0000FA
:0107FF0000F9
:0108000000F7
:0108010000F6
:0108020000F5
:0108030000F4
:0108040000F3
:0108050000F2
:0108060000F1
:0108070000F0
:0108080000EF
:0108090000EE
:01080A0000ED
:01080B0000EC
:01080C0000EB
:01080D0000EA
:01080E0000E9
:01080F0000E8
:0108100000E7
:0108110000E6
:0108120000E5
:0108130000E4
:0108140000E3
:0108150000E2
:0108160000E1
:0108170000E0
:0108180000DF
:0108190000DE
:01081A0000DD
:01081B0000DC
:01081C0000DB
:01081D0000DA
:01081E0000D9
:01081F0000D8
:0108200000D7
:0108210000D6
:0108220000D5
:0108230000D4
:0108240000D3
:0108250000D2
:0108260000D1
:0108270000D0
:0108280000CF
:0108290000CE
:01082A0000CD
:01082B0000CC
:01082C0000CB
:01082D0000CA
:01082E0000C9
:01082F0000C8
:0108300000C7
:0108310000C6
:0108320000C5
:0108330000C4
:0108340000C3
:0108350000C2
:0108360000C1
:0108370000C0
:0108380000BF
:0108390000BE
:01083A0000BD
:01083B0000BC
:01083C0000BB
:01083D0000BA
:01083E0000B9
:01083F0000B8
:0108400000B7
:0108410000B6
:0108420000B5
:0108430000B4
:0108440000B3
:0108450000B2
:0108460000B1
:0108470000B0
:0108480000AF
:0108490000AE
:01084A0000AD
:01084B0000AC
:01084C0000AB
:01084D0000AA
:01084E0000A9
:01084F0000A8
:0108500000A7
:0108510000A6
:0108520000A5
:0108530000A4
:0108540000A3
:0108550000A2
:0108560000A1
:0108570000A0
:01085800009F
:01085900009E
:01085A00009D
:01085B00009C
:01085C00009B
:01085D00009A
:01085E000099
:01085F000098
:010860000790
:010861000096
:010862000095
:010863000094
:010864000093
:01086500078B
:01086600078A
:010867000789
:01086800008F
:01086900008E
:01086A00008D
:01086B00008C
:01086C00008B
:01086D00008A
:01086E000089
:01086F000088
:010870000087
:010871000086
:010872000085
:010873000084
:010874000083
:01087500077B
:01087600077A
:010877000779
:01087800007F
:01087900007E
:01087A00007D
:01087B000775
:01087C00007B
:01087D00007A
:01087E000079
:01087F000078
:010880000077
:010881000076
:010882000075
:010883000074
:010884000073
:010885000072
:010886000071
:010887000070
:01088800006F
:01088900006E
:01088A00006D
:01088B00006C
:01088C00006B
:01088D00006A
:01088E000069
:01088F000068
:010890000067
:010891000066
:010892000065
:010893000064
:010894000063
:010895000062
:010896000061
:010897000060
:01089800005F
:01089900005E
:01089A00005D
:01089B00005C
:01089C00005B
:01089D00005A
:01089E000059
:01089F000058
:0108A0000057
:0108A1000056
:0108A2000055
:0108A3000054
:0108A4000053
:0108A5000052
:0108A6000051
:0108A7000050
:0108A800004F
:0108A900004E
:0108AA00004D
:0108AB00004C
:0108AC00004B
:0108AD00004A
:0108AE000049
:0108AF000048
:0108B0000047
:0108B1000046
:0108B2000045
:0108B3000044
:0108B4000043
:0108B5000042
:0108B6000041
:0108B7000040
:0108B800003F
:0108B900003E
:0108BA00003D
:0108BB00003C
:0108BC00003B
:0108BD00003A
:0108BE000039
:0108BF000038
:0108C0000037
:0108C1000036
:0108C2000035
:0108C3000034
:0108C4000033
:0108C5000032
:0108C6000031
:0108C7000030
:0108C800002F
:0108C900002E
:0108CA00002D
:0108CB00002C
:0108CC00002B
:0108CD00002A
:0108CE000029
:0108CF000028
:0108D0000027
:0108D1000026
:0108D2000025
:0108D3000024
:0108D4000023
:0108D5000022
:0108D6000021
:0108D7000020
:0108D800001F
:0108D900001E
:0108DA00001D
:0108DB00001C
:0108DC00001B
:0108DD00001A
:0108DE000019
:0108DF000018
:0108E0000017
:0108E1000016
:0108E2000015
:0108E3000014
:0108E4000013
:0108E5000012
:0108E6000011
:0108E7000010
:0108E800000F
:0108E900000E
:0108EA00000D
:0108EB00000C
:0108EC00000B
:0108ED00000A
:0108EE000009
:0108EF000008
:0108F0000007
:0108F1000006
:0108F2000005
:0108F3000004
:0108F4000003
:0108F5000002
:0108F6000001
:0108F7000000
:0108F80000FF
:0108F90000FE
:0108FA0000FD
:0108FB0000FC
:0108FC0000FB
:0108FD0000FA
:0108FE0000F9
:0108FF0000F8
:0109000000F6
:0109010000F5
:0109020000F4
:0109030000F3
:0109040000F2
:0109050000F1
:0109060000F0
:0109070000EF
:0109080000EE
:0109090000ED
:01090A0000EC
:01090B0000EB
:01090C0000EA
:01090D0000E9
:01090E0000E8
:01090F0000E7
:0109100000E6
:0109110000E5
:0109120000E4
:0109130000E3
:0109140000E2
:0109150007DA
:0109160000E0
:0109170000DF
:0109180000DE
:0109190007D6
:01091A0007D5
:01091B0007D4
:01091C0000DA
:01091D0000D9
:01091E0000D8
:01091F0000D7
:0109200000D6
:0109210000D5
:0109220000D4
:0109230000D3
:0109240000D2
:0109250000D1
:0109260000D0
:0109270000CF
:0109280007C7
:0109290007C6
:01092A0007C5
:01092B0000CB
:01092C0000CA
:01092D0000C9
:01092E0007C1
:01092F0000C7
:0109300000C6
:0109310000C5
:0109320000C4
:0109330000C3
:0109340000C2
:0109350000C1
:0109360000C0
:0109370000BF
:0109380000BE
:0109390000BD
:01093A0000BC
:01093B0000BB
:01093C0000BA
:01093D0000B9
:01093E0000B8
:01093F0000B7
:0109400000B6
:0109410000B5
:0109420000B4
:0109430000B3
:0109440000B2
:0109450000B1
:0109460000B0
:0109470000AF
:0109480000AE
:0109490000AD
:01094A0000AC
:01094B0000AB
:01094C0000AA
:01094D0000A9
:01094E0000A8
:01094F0000A7
:0109500000A6
:0109510000A5
:0109520000A4
:0109530000A3
:0109540000A2
:0109550000A1
:0109560000A0
:01095700009F
:01095800009E
:01095900009D
:01095A00009C
:01095B00009B
:01095C00009A
:01095D000099
:01095E000098
:01095F000097
:010960000096
:010961000095
:010962000094
:010963000093
:010964000092
:010965000091
:010966000090
:01096700008F
:01096800008E
:01096900008D
:01096A00008C
:01096B00008B
:01096C00008A
:01096D000089
:01096E000088
:01096F000087
:010970000086
:010971000085
:010972000084
:010973000083
:010974000082
:010975000081
:010976000080
:01097700007F
:01097800007E
:01097900007D
:01097A00007C
:01097B00007B
:01097C00007A
:01097D000079
:01097E000078
:01097F000077
:010980000076
:010981000075
:010982000074
:010983000073
:010984000072
:010985000071
:010986000070
:01098700006F
:01098800006E
:01098900006D
:01098A00006C
:01098B00006B
:01098C00006A
:01098D000069
:01098E000068
:01098F000067
:010990000066
:010991000065
:010992000064
:010993000063
:010994000062
:010995000061
:010996000060
:01099700005F
:01099800005E
:01099900005D
:01099A00005C
:01099B00005B
:01099C00005A
:01099D000059
:01099E000058
:01099F000057
:0109A0000056
:0109A1000055
:0109A2000054
:0109A3000053
:0109A4000052
:0109A5000051
:0109A6000050
:0109A700004F
:0109A800004E
:0109A900004D
:0109AA00004C
:0109AB00004B
:0109AC00004A
:0109AD000049
:0109AE000048
:0109AF000047
:0109B0000046
:0109B1000045
:0109B2000044
:0109B3000043
:0109B4000042
:0109B5000041
:0109B6000040
:0109B700003F
:0109B800003E
:0109B900003D
:0109BA00003C
:0109BB00003B
:0109BC00003A
:0109BD000039
:0109BE000038
:0109BF000037
:0109C0000036
:0109C1000035
:0109C2000034
:0109C3000033
:0109C4000032
:0109C5000031
:0109C6000030
:0109C700002F
:0109C800002E
:0109C900002D
:0109CA000725
:0109CB00002B
:0109CC00002A
:0109CD000029
:0109CE000721
:0109CF000720
:0109D000071F
:0109D1000025
:0109D2000024
:0109D3000023
:0109D4000022
:0109D5000021
:0109D6000020
:0109D700001F
:0109D800001E
:0109D900001D
:0109DA00001C
:0109DB00001B
:0109DC000713
:0109DD000712
:0109DE000711
:0109DF000017
:0109E0000016
:0109E1000015
:0109E200070D
:0109E3000013
:0109E4000012
:0109E5000011
:0109E6000010
:0109E700000F
:0109E800000E
:0109E900000D
:0109EA00000C
:0109EB00000B
:0109EC00000A
:0109ED000009
:0109EE000008
:0109EF000007
:0109F0000006
:0109F1000005
:0109F2000004
:0109F3000003
:0109F4000002
:0109F5000001
:0109F6000000
:0109F70000FF
:0109F80000FE
:0109F90000FD
:0109FA0000FC
:0109FB0000FB
:0109FC0000FA
:0109FD0000F9
:0109FE0000F8
:0109FF0000F7
:010A000000F5
:010A010000F4
:010A020000F3
:010A030000F2
:010A040000F1
:010A050000F0
:010A060000EF
:010A070000EE
:010A080000ED
:010A090000EC
:010A0A0000EB
:010A0B0000EA
:010A0C0000E9
:010A0D0000E8
:010A0E0000E7
:010A0F0000E6
:010A100000E5
:010A110000E4
:010A120000E3
:010A130000E2
:010A140000E1
:010A150000E0
:010A160000DF
:010A170000DE
:010A180000DD
:010A190000DC
:010A1A0000DB
:010A1B0000DA
:010A1C0000D9
:010A1D0000D8
:010A1E0000D7
:010A1F0000D6
:010A200000D5
:010A210000D4
:010A220000D3
:010A230000D2
:010A240000D1
:010A250000D0
:010A260000CF
:010A270000CE
:010A280000CD
:010A290000CC
:010A2A0000CB
:010A2B0000CA
:010A2C0000C9
:010A2D0000C8
:010A2E0000C7
:010A2F0000C6
:010A300000C5
:010A310000C4
:010A320000C3
:010A330000C2
:010A340000C1
:010A350000C0
:010A360000BF
:010A370000BE
:010A380000BD
:010A390000BC
:010A3A0000BB
:010A3B0000BA
:010A3C0000B9
:010A3D0000B8
:010A3E0000B7
:010A3F0000B6
:010A400000B5
:010A410000B4
:010A420000B3
:010A430000B2
:010A440000B1
:010A450000B0
:010A460000AF
:010A470000AE
:010A480000AD
:010A490000AC
:010A4A0000AB
:010A4B0000AA
:010A4C0000A9
:010A4D0000A8
:010A4E0000A7
:010A4F0000A6
:010A500000A5
:010A510000A4
:010A520000A3
:010A530000A2
:010A540000A1
:010A550000A0
:010A5600009F
:010A5700009E
:010A5800009D
:010A5900009C
:010A5A00009B
:010A5B00009A
:010A5C000099
:010A5D000098
:010A5E000097
:010A5F000096
:010A60000095
:010A61000094
:010A62000093
:010A63000092
:010A64000091
:010A65000090
:010A6600008F
:010A6700008E
:010A6800008D
:010A6900008C
:010A6A00008B
:010A6B00008A
:010A6C000089
:010A6D000088
:010A6E000087
:010A6F000086
:010A70000085
:010A71000084
:010A72000083
:010A73000082
:010A74000081
:010A75000080
:010A7600007F
:010A7700007E
:010A7800007D
:010A7900007C
:010A7A00007B
:010A7B00007A
:010A7C000079
:010A7D000078
:010A7E000770
:010A7F000076
:010A80000075
:010A81000074
:010A8200076C
:010A8300076B
:010A8400076A
:010A85000070
:010A8600006F
:010A8700006E
:010A8800006D
:010A8900006C
:010A8A00006B
:010A8B00006A
:010A8C000069
:010A8D000068
:010A8E000067
:010A8F000066
:010A9000075E
:010A9100075D
:010A9200075C
:010A93000062
:010A94000061
:010A95000060
:010A96000758
:010A9700005E
:010A9800005D
:010A9900005C
:010A9A00005B
:010A9B00005A
:010A9C000059
:010A9D000058
:010A9E000057
:010A9F000056
:010AA0000055
:010AA1000054
:010AA2000053
:010AA3000052
:010AA4000051
:010AA5000050
:010AA600004F
:010AA700004E
:010AA800004D
:010AA900004C
:010AAA00004B
:010AAB00004A
:010AAC000049
:010AAD000048
:010AAE000047
:010AAF000046
:010AB0000045
:010AB1000044
:010AB2000043
:010AB3000042
:010AB4000041
:010AB5000040
:010AB600003F
:010AB700003E
:010AB800003D
:010AB900003C
:010ABA00003B
:010ABB00003A
:010ABC000039
:010ABD000038
:010ABE000037
:010ABF000036
:010AC0000035
:010AC1000034
:010AC2000033
:010AC3000032
:010AC4000031
:010AC5000030
:010AC600002F
:010AC700002E
:010AC800002D
:010AC900002C
:010ACA00002B
:010ACB00002A
:010ACC000029
:010ACD000028
:010ACE000027
:010ACF000026
:010AD0000025
:010AD1000024
:010AD2000023
:010AD3000022
:010AD4000021
:010AD5000020
:010AD600001F
:010AD700001E
:010AD800001D
:010AD900001C
:010ADA00001B
:010ADB00001A
:010ADC000019
:010ADD000018
:010ADE000017
:010ADF000016
:010AE0000015
:010AE1000014
:010AE2000013
:010AE3000012
:010AE4000011
:010AE5000010
:010AE600000F
:010AE700000E
:010AE800000D
:010AE900000C
:010AEA00000B
:010AEB00000A
:010AEC000009
:010AED000008
:010AEE000007
:010AEF000006
:010AF0000005
:010AF1000004
:010AF2000003
:010AF3000002
:010AF4000001
:010AF5000000
:010AF60000FF
:010AF70000FE
:010AF80000FD
:010AF90000FC
:010AFA0000FB
:010AFB0000FA
:010AFC0000F9
:010AFD0000F8
:010AFE0000F7
:010AFF0000F6
:010B000000F4
:010B010000F3
:010B020000F2
:010B030000F1
:010B040000F0
:010B050000EF
:010B060000EE
:010B070000ED
:010B080000EC
:010B090000EB
:010B0A0000EA
:010B0B0000E9
:010B0C0000E8
:010B0D0000E7
:010B0E0000E6
:010B0F0000E5
:010B100000E4
:010B110000E3
:010B120000E2
:010B130000E1
:010B140000E0
:010B150000DF
:010B160000DE
:010B170000DD
:010B180000DC
:010B190000DB
:010B1A0000DA
:010B1B0000D9
:010B1C0000D8
:010B1D0000D7
:010B1E0000D6
:010B1F0000D5
:010B200000D4
:010B210000D3
:010B220000D2
:010B230000D1
:010B240000D0
:010B250000CF
:010B260000CE
:010B270000CD
:010B280000CC
:010B290000CB
:010B2A0000CA
:010B2B0000C9
:010B2C0000C8
:010B2D0000C7
:010B2E0000C6
:010B2F0000C5
:010B300000C4
:010B310000C3
:010B320007BB
:010B330000C1
:010B340000C0
:010B350000BF
:010B360007B7
:010B370007B6
:010B380007B5
:010B390000BB
:010B3A0000BA
:010B3B0000B9
:010B3C0000B8
:010B3D0000B7
:010B3E0000B6
:010B3F0000B5
:010B400000B4
:010B410000B3
:010B420000B2
:010B430000B1
:010B440007A9
:010B450007A8
:010B460007A7
:010B470000AD
:010B480000AC
:010B490000AB
:010B4A0007A3
:010B4B0000A9
:010B4C0000A8
:010B4D0000A7
:010B4E0000A6
:010B4F0000A5
:010B500000A4
:010B510000A3
:010B520000A2
:010B530000A1
:010B540000A0
:010B5500009F
:010B5600009E
:010B5700009D
:010B5800009C
:010B5900009B
:010B5A00009A
:010B5B000099
:010B5C000098
:010B5D000097
:010B5E000096
:010B5F000095
:010B60000094
:010B61000093
:010B62000092
:010B63000091
:010B64000090
:010B6500008F
:010B6600008E
:010B6700008D
:010B6800008C
:010B6900008B
:010B6A00008A
:010B6B000089
:010B6C000088
:010B6D000087
:010B6E000086
:010B6F000085
:010B70000084
:010B71000083
:010B72000082
:010B73000081
:010B74000080
:010B7500007F
:010B7600007E
:010B7700007D
:010B7800007C
:010B7900007B
:010B7A00007A
:010B7B000079
:010B7C000078
:010B7D000077
:010B7E000076
:010B7F000075
:010B80000074
:010B81000073
:010B82000072
:010B83000071
:010B84000070
:010B8500006F
:010B8600006E
:010B8700006D
:010B8800006C
:010B8900006B
:010B8A00006A
:010B8B000069
:010B8C000068
:010B8D000067
:010B8E000066
:010B8F000065
:010B90000064
:010B91000063
:010B92000062
:010B93000061
:010B94000060
:010B9500005F
:010B9600005E
:010B9700005D
:010B9800005C
:010B9900005B
:010B9A00005A
:010B9B000059
:010B9C000058
:010B9D000057
:010B9E000056
:010B9F000055
:010BA0000054
:010BA1000053
:010BA2000052
:010BA3000051
:010BA4000050
:010BA500004F
:010BA600004E
:010BA700004D
:010BA800004C
:010BA900004B
:010BAA00004A
:010BAB000049
:010BAC000048
:010BAD000047
:010BAE000046
:010BAF000045
:010BB0000044
:010BB1000043
:010BB2000042
:010BB3000041
:010BB4000040
:010BB500003F
:010BB600003E
:010BB700003D
:010BB800003C
:010BB900003B
:010BBA00003A
:010BBB000039
:010BBC000038
:010BBD000037
:010BBE000036
:010BBF000035
:010BC0000034
:010BC1000033
:010BC2000032
:010BC3000031
:010BC4000030
:010BC500002F
:010BC600002E
:010BC700002D
:010BC800002C
:010BC900002B
:010BCA00002A
:010BCB000029
:010BCC000028
:010BCD000027
:010BCE000026
:010BCF000025
:010BD0000024
:010BD1000023
:010BD2000022
:010BD3000021
:010BD4000020
:010BD500001F
:010BD600001E
:010BD700001D
:010BD800001C
:010BD900001B
:010BDA00001A
:010BDB000019
:010BDC000018
:010BDD000017
:010BDE000016
:010BDF000015
:010BE0000014
:010BE1000013
:010BE2000012
:010BE3000011
:010BE4000010
:010BE500000F
:010BE6000707
:010BE700000D
:010BE800000C
:010BE900000B
:010BEA000703
:010BEB000702
:010BEC000701
:010BED000007
:010BEE000006
:010BEF000005
:010BF0000004
:010BF1000003
:010BF2000002
:010BF3000001
:010BF4000000
:010BF50000FF
:010BF60000FE
:010BF70000FD
:010BF80007F5
:010BF90007F4
:010BFA0007F3
:010BFB0000F9
:010BFC0000F8
:010BFD0000F7
:010BFE0007EF
:010BFF0000F5
:010C000000F3
:010C010000F2
:010C020000F1
:010C030000F0
:010C040000EF
:010C050000EE
:010C060000ED
:010C070000EC
:010C080000EB
:010C090000EA
:010C0A0000E9
:010C0B0000E8
:010C0C0000E7
:010C0D0000E6
:010C0E0000E5
:010C0F0000E4
:010C100000E3
:010C110000E2
:010C120000E1
:010C130000E0
:010C140000DF
:010C150000DE
:010C160000DD
:010C170000DC
:010C180000DB
:010C190000DA
:010C1A0000D9
:010C1B0000D8
:010C1C0000D7
:010C1D0000D6
:010C1E0000D5
:010C1F0000D4
:010C200000D3
:010C210000D2
:010C220000D1
:010C230000D0
:010C240000CF
:010C250000CE
:010C260000CD
:010C270000CC
:010C280000CB
:010C290000CA
:010C2A0000C9
:010C2B0000C8
:010C2C0000C7
:010C2D0000C6
:010C2E0000C5
:010C2F0000C4
:010C300000C3
:010C310000C2
:010C320000C1
:010C330000C0
:010C340000BF
:010C350000BE
:010C360000BD
:010C370000BC
:010C380000BB
:010C390000BA
:010C3A0000B9
:010C3B0000B8
:010C3C0000B7
:010C3D0000B6
:010C3E0000B5
:010C3F0000B4
:010C400000B3
:010C410000B2
:010C420000B1
:010C430000B0
:010C440000AF
:010C450000AE
:010C460000AD
:010C470000AC
:010C480000AB
:010C490000AA
:010C4A0000A9
:010C4B0000A8
:010C4C0000A7
:010C4D0000A6
:010C4E0000A5
:010C4F0000A4
:010C500000A3
:010C510000A2
:010C520000A1
:010C530000A0
:010C5400009F
:010C5500009E
:010C5600009D
:010C5700009C
:010C5800009B
:010C5900009A
:010C5A000099
:010C5B000098
:010C5C000097
:010C5D000096
:010C5E000095
:010C5F000094
:010C60000093
:010C61000092
:010C62000091
:010C63000090
:010C6400008F
:010C6500008E
:010C6600008D
:010C6700008C
:010C6800008B
:010C6900008A
:010C6A000089
:010C6B000088
:010C6C000087
:010C6D000086
:010C6E000085
:010C6F000084
:010C70000083
:010C71000082
:010C72000081
:010C73000080
:010C7400007F
:010C7500007E
:010C7600007D
:010C7700007C
:010C7800007B
:010C7900007A
:010C7A000079
:010C7B000078
:010C7C000077
:010C7D000076
:010C7E000075
:010C7F000074
:010C80000073
:010C81000072
:010C82000071
:010C83000070
:010C8400006F
:010C8500006E
:010C8600006D
:010C8700006C
:010C8800006B
:010C8900006A
:010C8A000069
:010C8B000068
:010C8C000067
:010C8D000066
:010C8E000065
:010C8F000064
:010C90000063
:010C91000062
:010C92000061
:010C93000060
:010C9400005F
:010C9500005E
:010C9600005D
:010C9700005C
:010C9800005B
:010C9900005A
:010C9A000752
:010C9B000058
:010C9C000057
:010C9D000056
:010C9E00074E
:010C9F00074D
:010CA000074C
:010CA1000052
:010CA2000051
:010CA3000050
:010CA400004F
:010CA500004E
:010CA600004D
:010CA700004C
:010CA800004B
:010CA900004A
:010CAA000049
:010CAB000048
:010CAC000740
:010CAD00073F
:010CAE00073E
:010CAF000044
:010CB0000043
:010CB1000042
:010CB200073A
:010CB3000040
:010CB400003F
:010CB500003E
:010CB600003D
:010CB700003C
:010CB800003B
:010CB900003A
:010CBA000039
:010CBB000038
:010CBC000037
:010CBD000036
:010CBE000035
:010CBF000034
:010CC0000033
:010CC1000032
:010CC2000031
:010CC3000030
:010CC400002F
:010CC500002E
:010CC600002D
:010CC700002C
:010CC800002B
:010CC900002A
:010CCA000029
:010CCB000028
:010CCC000027
:010CCD000026
:010CCE000025
:010CCF000024
:010CD0000023
:010CD1000022
:010CD2000021
:010CD3000020
:010CD400001F
:010CD500001E
:010CD600001D
:010CD700001C
:010CD800001B
:010CD900001A
:010CDA000019
:010CDB000018
:010CDC000017
:010CDD000016
:010CDE000015
:010CDF000014
:010CE0000013
:010CE1000012
:010CE2000011
:010CE3000010
:010CE400000F
:010CE500000E
:010CE600000D
:010CE700000C
:010CE800000B
:010CE900000A
:010CEA000009
:010CEB000008
:010CEC000007
:010CED000006
:010CEE000005
:010CEF000004
:010CF0000003
:010CF1000002
:010CF2000001
:010CF3000000
:010CF40000FF
:010CF50000FE
:010CF60000FD
:010CF70000FC
:010CF80000FB
:010CF90000FA
:010CFA0000F9
:010CFB0000F8
:010CFC0000F7
:010CFD0000F6
:010CFE0000F5
:010CFF0000F4
:010D000000F2
:010D010000F1
:010D020000F0
:010D030000EF
:010D040000EE
:010D050000ED
:010D060000EC
:010D070000EB
:010D080000EA
:010D090000E9
:010D0A0000E8
:010D0B0000E7
:010D0C0000E6
:010D0D0000E5
:010D0E0000E4
:010D0F0000E3
:010D100000E2
:010D110000E1
:010D120000E0
:010D130000DF
:010D140000DE
:010D150000DD
:010D160000DC
:010D170000DB
:010D180000DA
:010D190000D9
:010D1A0000D8
:010D1B0000D7
:010D1C0000D6
:010D1D0000D5
:010D1E0000D4
:010D1F0000D3
:010D200000D2
:010D210000D1
:010D220000D0
:010D230000CF
:010D240000CE
:010D250000CD
:010D260000CC
:010D270000CB
:010D280000CA
:010D290000C9
:010D2A0000C8
:010D2B0000C7
:010D2C0000C6
:010D2D0000C5
:010D2E0000C4
:010D2F0000C3
:010D300000C2
:010D310000C1
:010D320000C0
:010D330000BF
:010D340000BE
:010D350000BD
:010D360000BC
:010D370000BB
:010D380000BA
:010D390000B9
:010D3A0000B8
:010D3B0000B7
:010D3C0000B6
:010D3D0000B5
:010D3E0000B4
:010D3F0000B3
:010D400000B2
:010D410000B1
:010D420000B0
:010D430000AF
:010D440000AE
:010D450000AD
:010D460000AC
:010D470000AB
:010D480000AA
:010D490000A9
:010D4A0000A8
:010D4B0000A7
:010D4C0000A6
:010D4D0000A5
:010D4E00079D
:010D4F0000A3
:010D500000A2
:010D510000A1
:010D52000799
:010D53000798
:010D54000797
:010D5500009D
:010D5600009C
:010D5700009B
:010D5800009A
:010D59000099
:010D5A000098
:010D5B000097
:010D5C000096
:010D5D000095
:010D5E000094
:010D5F000093
:010D6000078B
:010D6100078A
:010D62000789
:010D6300008F
:010D6400008E
:010D6500008D
:010D66000785
:010D6700008B
:010D6800008A
:010D69000089
:010D6A000088
:010D6B000087
:010D6C000086
:010D6D000085
:010D6E000084
:010D6F000083
:010D70000082
:010D71000081
:010D72000080
:010D7300007F
:010D7400007E
:010D7500007D
:010D7600007C
:010D7700007B
:010D7800007A
:010D79000079
:010D7A000078
:010D7B000077
:010D7C000076
:010D7D000075
:010D7E000074
:010D7F000073
:010D80000072
:010D81000071
:010D82000070
:010D8300006F
:010D8400006E
:010D8500006D
:010D8600006C
:010D8700006B
:010D8800006A
:010D89000069
:010D8A000068
:010D8B000067
:010D8C000066
:010D8D000065
:010D8E000064
:010D8F000063
:010D90000062
:010D91000061
:010D92000060
:010D9300005F
:010D9400005E
:010D9500005D
:010D9600005C
:010D9700005B
:010D9800005A
:010D99000059
:010D9A000058
:010D9B000057
:010D9C000056
:010D9D000055
:010D9E000054
:010D9F000053
:010DA0000052
:010DA1000051
:010DA2000050
:010DA300004F
:010DA400004E
:010DA500004D
:010DA600004C
:010DA700004B
:010DA800004A
:010DA9000049
:010DAA000048
:010DAB000047
:010DAC000046
:010DAD000045
:010DAE000044
:010DAF000043
:010DB0000042
:010DB1000041
:010DB2000040
:010DB300003F
:010DB400003E
:010DB500003D
:010DB600003C
:010DB700003B
:010DB800003A
:010DB9000039
:010DBA000038
:010DBB000037
:010DBC000036
:010DBD000035
:010DBE000034
:010DBF000033
:010DC0000032
:010DC1000031
:010DC2000030
:010DC300002F
:010DC400002E
:010DC500002D
:010DC600002C
:010DC700002B
:010DC800002A
:010DC9000029
:010DCA000028
:010DCB000027
:010DCC000026
:010DCD000025
:010DCE000024
:010DCF000023
:010DD0000022
:010DD1000021
:010DD2000020
:010DD300001F
:010DD400001E
:010DD500001D
:010DD600001C
:010DD700001B
:010DD800001A
:010DD9000019
:010DDA000018
:010DDB000017
:010DDC000016
:010DDD000015
:010DDE000014
:010DDF000013
:010DE0000012
:010DE1000011
:010DE2000010
:010DE300000F
:010DE400000E
:010DE500000D
:010DE600000C
:010DE700000B
:010DE800000A
:010DE9000009
:010DEA000008
:010DEB000007
:010DEC000006
:010DED000005
:010DEE000004
:010DEF000003
:010DF0000002
:010DF1000001
:010DF2000000
:010DF30000FF
:010DF40000FE
:010DF50000FD
:010DF60000FC
:010DF70000FB
:010DF80000FA
:010DF90000F9
:010DFA0000F8
:010DFB0000F7
:010DFC0000F6
:010DFD0000F5
:010DFE0000F4
:010DFF0000F3
:010E000000F1
:010E010000F0
:010E020007E8
:010E030000EE
:010E040000ED
:010E050000EC
:010E060007E4
:010E070007E3
:010E080007E2
:010E090000E8
:010E0A0000E7
:010E0B0000E6
:010E0C0000E5
:010E0D0000E4
:010E0E0000E3
:010E0F0000E2
:010E100000E1
:010E110000E0
:010E120000DF
:010E130000DE
:010E140007D6
:010E150007D5
:010E160007D4
:010E170000DA
:010E180000D9
:010E190000D8
:010E1A0007D0
:010E1B0000D6
:010E1C0000D5
:010E1D0000D4
:010E1E0000D3
:010E1F0000D2
:010E200000D1
:010E210000D0
:010E220000CF
:010E230000CE
:010E240000CD
:010E250000CC
:010E260000CB
:010E270000CA
:010E280000C9
:010E290000C8
:010E2A0000C7
:010E2B0000C6
:010E2C0000C5
:010E2D0000C4
:010E2E0000C3
:010E2F0000C2
:010E300000C1
:010E310000C0
:010E320000BF
:010E330000BE
:010E340000BD
:010E350000BC
:010E360000BB
:010E370000BA
:010E380000B9
:010E390000B8
:010E3A0000B7
:010E3B0000B6
:010E3C0000B5
:010E3D0000B4
:010E3E0000B3
:010E3F0000B2
:010E400000B1
:010E410000B0
:010E420000AF
:010E430000AE
:010E440000AD
:010E450000AC
:010E460000AB
:010E470000AA
:010E480000A9
:010E490000A8
:010E4A0000A7
:010E4B0000A6
:010E4C0000A5
:010E4D0000A4
:010E4E0000A3
:010E4F0000A2
:010E500000A1
:010E510000A0
:010E5200009F
:010E5300009E
:010E5400009D
:010E5500009C
:010E5600009B
:010E5700009A
:010E58000099
:010E59000098
:010E5A000097
:010E5B000096
:010E5C000095
:010E5D000094
:010E5E000093
:010E5F000092
:010E60000091
:010E61000090
:010E6200008F
:010E6300008E
:010E6400008D
:010E6500008C
:010E6600008B
:010E6700008A
:010E68000089
:010E69000088
:010E6A000087
:010E6B000086
:010E6C000085
:010E6D000084
:010E6E000083
:010E6F000082
:010E70000081
:010E71000080
:010E7200007F
:010E7300007E
:010E7400007D
:010E7500007C
:010E7600007B
:010E7700007A
:010E78000079
:010E79000078
:010E7A000077
:010E7B000076
:010E7C000075
:010E7D000074
:010E7E000073
:010E7F000072
:010E80000071
:010E81000070
:010E8200006F
:010E8300006E
:010E8400006D
:010E8500006C
:010E8600006B
:010E8700006A
:010E88000069
:010E89000068
:010E8A000067
:010E8B000066
:010E8C000065
:010E8D000064
:010E8E000063
:010E8F000062
:010E90000061
:010E91000060
:010E9200005F
:010E9300005E
:010E9400005D
:010E9500005C
:010E9600005B
:010E9700005A
:010E98000059
:010E99000058
:010E9A000057
:010E9B000056
:010E9C000055
:010E9D000054
:010E9E000053
:010E9F000052
:010EA0000051
:010EA1000050
:010EA200004F
:010EA300004E
:010EA400004D
:010EA500004C
:010EA600004B
:010EA700004A
:010EA8000049
:010EA9000048
:010EAA000047
:010EAB000046
:010EAC000045
:010EAD000044
:010EAE000043
:010EAF000042
:010EB0000041
:010EB1000040
:010EB200003F
:010EB300003E
:010EB400003D
:010EB500003C
:010EB6000734
:010EB700003A
:010EB8000039
:010EB9000038
:010EBA000730
:010EBB00072F
:010EBC00072E
:010EBD000034
:010EBE000033
:010EBF000032
:010EC0000031
:010EC1000030
:010EC200002F
:010EC300002E
:010EC400002D
:010EC500002C
:010EC600002B
:010EC700002A
:010EC8000722
:010EC9000721
:010ECA000720
:010ECB000026
:010ECC000025
:010ECD000024
:010ECE00071C
:010ECF000022
:010ED0000021
:010ED1000020
:010ED200001F
:010ED300001E
:010ED400001D
:010ED500001C
:010ED600001B
:010ED700001A
:010ED8000019
:010ED9000018
:010EDA000017
:010EDB000016
:010EDC000015
:010EDD000014
:010EDE000013
:010EDF000012
:010EE0000011
:010EE1000010
:010EE200000F
:010EE300000E
:010EE400000D
:010EE5000309
:010EE6000308
:010EE7000307
:010EE8000306
:010EE9000701
:010EEA000700
:010EEB0007FF
:010EEC0007FE
:010EED0007FD
:010EEE0007FC
:010EEF0007FB
:010EF00007FA
:010EF10007F9
:010EF20007F8
:010EF30007F7
:010EF40004F9
:010EF50004F8
:010EF60004F7
:010EF70004F6
:010EF80000F9
:010EF90000F8
:010EFA0000F7
:010EFB0000F6
:010EFC0000F5
:010EFD0000F4
:010EFE0000F3
:010EFF0000F2
:010F000000F0
:010F010000EF
:010F020003EB
:010F030003EA
:010F040003E9
:010F050003E8
:010F060003E7
:010F070007E2
:010F080007E1
:010F090007E0
:010F0A0007DF
:010F0B0007DE
:010F0C0007DD
:010F0D0007DC
:010F0E0007DB
:010F0F0007DA
:010F100007D9
:010F110007D8
:010F120006D8
:010F130004D9
:010F140004D8
:010F150004D7
:010F160000DA
:010F170000D9
:010F180000D8
:010F190000D7
:010F1A0000D6
:010F1B0000D5
:010F1C0000D4
:010F1D0000D3
:010F1E0000D2
:010F1F0000D1
:010F200000D0
:010F210000CF
:010F220000CE
:010F230000CD
:010F240000CC
:010F250000CB
:010F260000CA
:010F270003C6
:010F280003C5
:010F290003C4
:010F2A0003C3
:010F2B0003C2
:010F2C0003C1
:010F2D0003C0
:010F2E0007BB
:010F2F0007BA
:010F300007B9
:010F310007B8
:010F320003BB
:010F330003BA
:010F340003B9
:010F350003B8
:010F360000BA
:010F370000B9
:010F380000B8
:010F390000B7
:010F3A0000B6
:010F3B0000B5
:010F3C0000B4
:010F3D0000B3
:010F3E0000B2
:010F3F0000B1
:010F400004AC
:010F410004AB
:010F420004AA
:010F430004A9
:010F440005A7
:010F450007A4
:010F460007A3
:010F470007A2
:010F480007A1
:010F490007A0
:010F4A00079F
:010F4B00079E
:010F4C00079D
:010F4D00079C
:010F4E00079B
:010F4F00039E
:010F5000039D
:010F5100039C
:010F5200039B
:010F5300039A
:010F5400019B
:010F5500009B
:010F5600009A
:010F57000099
:010F58000098
:010F59000097
:010F5A000096
:010F5B000095
:010F5C000094
:010F5D000093
:010F5E000092
:010F5F000091
:010F60000090
:010F6100008F
:010F6200008E
:010F6300008D
:010F6400008C
:010F6500008B
:010F6600008A
:010F67000089
:010F68000088
:010F69000087
:010F6A00077F
:010F6B000085
:010F6C000084
:010F6D000083
:010F6E00077B
:010F6F00077A
:010F70000779
:010F7100007F
:010F7200007E
:010F7300007D
:010F7400007C
:010F7500007B
:010F7600007A
:010F77000079
:010F78000078
:010F79000077
:010F7A000076
:010F7B000075
:010F7C00076D
:010F7D00076C
:010F7E00076B
:010F7F000071
:010F80000070
:010F8100006F
:010F82000767
:010F8300006D
:010F8400006C
:010F8500006B
:010F8600006A
:010F87000069
:010F88000068
:010F89000067
:010F8A000066
:010F8B000065
:010F8C000064
:010F8D000063
:010F8E000062
:010F8F000061
:010F90000060
:010F9100005F
:010F9200005E
:010F9300005D
:010F9400005C
:010F9500005B
:010F9600005A
:010F97000059
:010F98000355
:010F99000354
:010F9A000353
:010F9B000352
:010F9C00074D
:010F9D00074C
:010F9E00074B
:010F9F00074A
:010FA0000749
:010FA1000748
:010FA2000747
:010FA3000746
:010FA4000745
:010FA5000744
:010FA6000743
:010FA7000742
:010FA8000741
:010FA9000443
:010FAA000442
:010FAB000441
:010FAC000440
:010FAD000043
:010FAE000042
:010FAF000041
:010FB0000040
:010FB100003F
:010FB200003E
:010FB300003D
:010FB400003C
:010FB500003B
:010FB6000337
:010FB7000336
:010FB8000335
:010FB9000334
:010FBA00072F
:010FBB00072E
:010FBC00072D
:010FBD00072C
:010FBE00072B
:010FBF00072A
:010FC0000729
:010FC1000728
:010FC2000727
:010FC3000726
:010FC4000725
:010FC5000724
:010FC6000723
:010FC7000425
:010FC8000424
:010FC9000423
:010FCA000422
:010FCB000025
:010FCC000024
:010FCD000023
:010FCE000022
:010FCF000021
:010FD0000020
:010FD100001F
:010FD200001E
:010FD300001D
:010FD400001C
:010FD500001B
:010FD600001A
:010FD7000019
:010FD8000018
:010FD9000017
:010FDA000313
:010FDB000312
:010FDC000311
:010FDD000310
:010FDE00030F
:010FDF00030E
:010FE000030D
:010FE1000708
:010FE2000707
:010FE3000706
:010FE4000705
:010FE5000704
:010FE6000307
:010FE7000306
:010FE8000305
:010FE9000304
:010FEA000303
:010FEB000005
:010FEC000004
:010FED000003
:010FEE000002
:010FEF000001
:010FF0000000
:010FF10000FF
:010FF20000FE
:010FF30004F9
:010FF40004F8
:010FF50004F7
:010FF60004F6
:010FF70004F5
:010FF80007F1
:010FF90007F0
:010FFA0007EF
:010FFB0007EE
:010FFC0007ED
:010FFD0007EC
:010FFE0007EB
:010FFF0007EA
:0110000007E8
:0110010007E7
:0110020007E6
:0110030007E5
:0110040003E8
:0110050003E7
:0110060003E6
:0110070003E5
:0110080003E4
:0110090000E6
:01100A0000E5
:01100B0000E4
:01100C0000E3
:01100D0000E2
:01100E0000E1
:01100F0000E0
:0110100000DF
:0110110000DE
:0110120000DD
:0110130000DC
:0110140000DB
:0110150000DA
:0110160000D9
:0110170000D8
:0110180000D7
:0110190000D6
:01101A0000D5
:01101B0000D4
:01101C0000D3
:01101D0000D2
:01101E0007CA
:01101F0000D0
:0110200000CF
:0110210000CE
:0110220007C6
:0110230007C5
:0110240007C4
:0110250000CA
:0110260000C9
:0110270000C8
:0110280000C7
:0110290000C6
:01102A0000C5
:01102B0000C4
:01102C0000C3
:01102D0000C2
:01102E0000C1
:01102F0000C0
:0110300007B8
:0110310007B7
:0110320007B6
:0110330000BC
:0110340000BB
:0110350000BA
:0110360007B2
:0110370000B8
:0110380000B7
:0110390000B6
:01103A0000B5
:01103B0000B4
:01103C0000B3
:01103D0000B2
:01103E0000B1
:01103F0000B0
:0110400000AF
:0110410000AE
:0110420000AD
:0110430000AC
:0110440000AB
:0110450000AA
:0110460000A9
:0110470000A8
:0110480000A7
:0110490000A6
:01104A0000A5
:01104B0000A4
:01104C0003A0
:01104D00039F
:01104E00039E
:01104F00039D
:011050000798
:011051000797
:011052000796
:011053000795
:011054000794
:011055000793
:011056000792
:011057000791
:011058000790
:01105900078F
:01105A00078E
:01105B00078D
:01105C00078C
:01105D00048E
:01105E00048D
:01105F00048C
:01106000048B
:01106100008E
:01106200008D
:01106300008C
:01106400008B
:01106500008A
:011066000089
:011067000088
:011068000087
:011069000086
:01106A000382
:01106B000381
:01106C000380
:01106D00037F
:01106E00077A
:01106F000779
:011070000778
:011071000777
:011072000776
:011073000775
:011074000774
:011075000773
:011076000772
:011077000771
:011078000770
:01107900076F
:01107A00076E
:01107B000470
:01107C00046F
:01107D00046E
:01107E00046D
:01107F000070
:01108000006F
:01108100006E
:01108200006D
:01108300006C
:01108400006B
:01108500006A
:011086000069
:011087000068
:011088000067
:011089000066
:01108A000065
:01108B000064
:01108C000063
:01108D000062
:01108E00035E
:01108F00035D
:01109000035C
:01109100035B
:01109200035A
:011093000359
:011094000358
:011095000753
:011096000752
:011097000751
:011098000750
:01109900074F
:01109A000352
:01109B000351
:01109C000350
:01109D00034F
:01109E00034E
:01109F000050
:0110A000004F
:0110A100004E
:0110A200004D
:0110A300004C
:0110A400004B
:0110A500004A
:0110A6000049
:0110A7000444
:0110A8000443
:0110A9000442
:0110AA000441
:0110AB000440
:0110AC00073C
:0110AD00073B
:0110AE00073A
:0110AF000739
:0110B0000738
:0110B1000737
:0110B2000736
:0110B3000735
:0110B4000734
:0110B5000733
:0110B6000732
:0110B7000731
:0110B8000334
:0110B9000333
:0110BA000332
:0110BB000331
:0110BC000330
:0110BD000032
:0110BE000031
:0110BF000030
:0110C000002F
:0110C100002E
:0110C200002D
:0110C300002C
:0110C400002B
:0110C500002A
:0110C6000029
:0110C7000028
:0110C8000027
:0110C9000026
:0110CA000025
:0110CB000024
:0110CC000023
:0110CD000022
:0110CE000021
:0110CF000020
:0110D000001F
:0110D100001E
:0110D2000716
:0110D300001C
:0110D400001B
:0110D500001A
:0110D6000712
:0110D7000711
:0110D8000710
:0110D9000016
:0110DA000015
:0110DB000014
:0110DC000013
:0110DD000012
:0110DE000011
:0110DF000010
:0110E000000F
:0110E100000E
:0110E200000D
:0110E300000C
:0110E4000704
:0110E5000703
:0110E6000702
:0110E7000008
:0110E8000007
:0110E9000006
:0110EA0007FE
:0110EB000004
:0110EC000003
:0110ED000002
:0110EE000001
:0110EF000000
:0110F00000FF
:0110F10000FE
:0110F20000FD
:0110F30000FC
:0110F40000FB
:0110F50000FA
:0110F60000F9
:0110F70000F8
:0110F80000F7
:0110F90000F6
:0110FA0000F5
:0110FB0000F4
:0110FC0000F3
:0110FD0000F2
:0110FE0000F1
:0110FF0000F0
:0111000003EB
:0111010003EA
:0111020003E9
:0111030003E8
:0111040007E3
:0111050007E2
:0111060007E1
:0111070007E0
:0111080007DF
:0111090007DE
:01110A0007DD
:01110B0007DC
:01110C0007DB
:01110D0007DA
:01110E0007D9
:01110F0007D8
:0111100007D7
:0111110004D9
:0111120004D8
:0111130004D7
:0111140004D6
:0111150000D9
:0111160000D8
:0111170000D7
:0111180000D6
:0111190000D5
:01111A0000D4
:01111B0000D3
:01111C0000D2
:01111D0000D1
:01111E0003CD
:01111F0003CC
:0111200003CB
:0111210003CA
:0111220007C5
:0111230007C4
:0111240007C3
:0111250007C2
:0111260007C1
:0111270007C0
:0111280007BF
:0111290007BE
:01112A0007BD
:01112B0007BC
:01112C0007BB
:01112D0007BA
:01112E0007B9
:01112F0004BB
:0111300004BA
:0111310004B9
:0111320004B8
:0111330000BB
:0111340000BA
:0111350000B9
:0111360000B8
:0111370000B7
:0111380000B6
:0111390000B5
:01113A0000B4
:01113B0000B3
:01113C0000B2
:01113D0000B1
:01113E0000B0
:01113F0000AF
:0111400000AE
:0111410000AD
:0111420003A9
:0111430003A8
:0111440003A7
:0111450003A6
:0111460003A5
:0111470003A4
:0111480003A3
:01114900079E
:01114A00079D
:01114B00079C
:01114C00079B
:01114D00079A
:01114E00039D
:01114F00039C
:01115000039B
:01115100039A
:011152000399
:01115300009B
:01115400009A
:011155000099
:011156000098
:011157000097
:011158000096
:011159000095
:01115A000094
:01115B00048F
:01115C00048E
:01115D00048D
:01115E00048C
:01115F00048B
:011160000787
:011161000786
:011162000785
:011163000784
:011164000783
:011165000782
:011166000781
:011167000780
:01116800077F
:01116900077E
:01116A00077D
:01116B00077C
:01116C00037F
:01116D00037E
:01116E00037D
:01116F00037C
:01117000037B
:01117100007D
:01117200007C
:01117300007B
:01117400007A
:011175000079
:011176000078
:011177000077
:011178000076
:011179000075
:01117A000074
:01117B000073
:01117C000072
:01117D000071
:01117E000070
:01117F00006F
:01118000006E
:01118100006D
:01118200006C
:01118300006B
:01118400006A
:011185000069
:011186000761
:011187000067
:011188000066
:011189000065
:01118A00075D
:01118B00075C
:01118C00075B
:01118D000061
:01118E000060
:01118F00005F
:01119000005E
:01119100005D
:01119200005C
:01119300005B
:01119400005A
:011195000059
:011196000058
:011197000057
:01119800074F
:01119900074E
:01119A00074D
:01119B000053
:01119C000052
:01119D000051
:01119E000749
:01119F00004F
:0111A000004E
:0111A100004D
:0111A200004C
:0111A300004B
:0111A400004A
:0111A5000049
:0111A6000048
:0111A7000047
:0111A8000046
:0111A9000045
:0111AA000044
:0111AB000043
:0111AC000042
:0111AD000041
:0111AE000040
:0111AF00003F
:0111B000003E
:0111B100003D
:0111B200003C
:0111B300003B
:0111B4000337
:0111B5000336
:0111B6000335
:0111B7000334
:0111B800072F
:0111B900072E
:0111BA00072D
:0111BB00072C
:0111BC00072B
:0111BD00072A
:0111BE000729
:0111BF000728
:0111C0000727
:0111C1000726
:0111C2000725
:0111C3000724
:0111C4000723
:0111C5000425
:0111C6000424
:0111C7000423
:0111C8000422
:0111C9000025
:0111CA000024
:0111CB000023
:0111CC000022
:0111CD000021
:0111CE000020
:0111CF00001F
:0111D000001E
:0111D100001D
:0111D2000319
:0111D3000318
:0111D4000317
:0111D5000316
:0111D6000711
:0111D7000710
:0111D800070F
:0111D900070E
:0111DA00070D
