:0100000000FF
:0100010000FE
:0100020000FD
:0100030000FC
:0100040000FB
:0100050000FA
:0100060000F9
:0100070000F8
:0100080000F7
:0100090000F6
:01000A0000F5
:01000B0000F4
:01000C0000F3
:01000D0000F2
:01000E0000F1
:01000F0000F0
:0100100000EF
:0100110000EE
:0100120000ED
:0100130000EC
:0100140000EB
:0100150000EA
:0100160000E9
:0100170000E8
:0100180000E7
:0100190000E6
:01001A0000E5
:01001B0000E4
:01001C0000E3
:01001D0000E2
:01001E0000E1
:01001F0000E0
:0100200000DF
:0100210000DE
:0100220000DD
:0100230000DC
:0100240000DB
:0100250000DA
:0100260000D9
:0100270000D8
:0100280000D7
:0100290000D6
:01002A0000D5
:01002B0000D4
:01002C0000D3
:01002D0000D2
:01002E0000D1
:01002F0000D0
:0100300000CF
:0100310000CE
:0100320000CD
:0100330000CC
:0100340000CB
:0100350000CA
:0100360000C9
:0100370000C8
:0100380000C7
:0100390000C6
:01003A0000C5
:01003B0000C4
:01003C0000C3
:01003D0000C2
:01003E0000C1
:01003F0000C0
:0100400000BF
:0100410000BE
:0100420000BD
:0100430000BC
:0100440000BB
:0100450000BA
:0100460000B9
:0100470000B8
:0100480000B7
:0100490000B6
:01004A0000B5
:01004B0000B4
:01004C0000B3
:01004D0000B2
:01004E0000B1
:01004F0000B0
:0100500000AF
:0100510000AE
:0100520000AD
:0100530000AC
:0100540000AB
:0100550000AA
:0100560000A9
:0100570000A8
:0100580000A7
:0100590000A6
:01005A0000A5
:01005B0000A4
:01005C0000A3
:01005D0000A2
:01005E0000A1
:01005F0000A0
:01006000009F
:01006100009E
:01006200009D
:01006300009C
:01006400009B
:01006500009A
:010066000099
:010067000098
:010068000097
:010069000096
:01006A000095
:01006B000094
:01006C000093
:01006D000092
:01006E000091
:01006F000090
:01007000008F
:01007100008E
:01007200008D
:01007300008C
:01007400008B
:01007500008A
:010076000089
:010077000088
:010078000087
:010079000086
:01007A000085
:01007B000084
:01007C000083
:01007D000082
:01007E000081
:01007F000080
:01008000007F
:01008100007E
:01008200007D
:01008300007C
:01008400007B
:01008500007A
:010086000079
:010087000078
:010088000077
:010089000076
:01008A000075
:01008B000074
:01008C000073
:01008D000072
:01008E000071
:01008F000070
:01009000006F
:01009100006E
:01009200006D
:01009300006C
:01009400006B
:01009500006A
:010096000069
:010097000068
:010098000067
:010099000066
:01009A000065
:01009B000064
:01009C000063
:01009D000062
:01009E000061
:01009F000060
:0100A000005F
:0100A100005E
:0100A200005D
:0100A300005C
:0100A400005B
:0100A500005A
:0100A6000059
:0100A7000058
:0100A8000057
:0100A9000056
:0100AA000055
:0100AB000054
:0100AC000053
:0100AD000052
:0100AE000051
:0100AF000050
:0100B000004F
:0100B100004E
:0100B200004D
:0100B300004C
:0100B400004B
:0100B500004A
:0100B6000049
:0100B7000048
:0100B8000047
:0100B9000046
:0100BA000045
:0100BB000044
:0100BC000043
:0100BD000042
:0100BE000041
:0100BF000040
:0100C000003F
:0100C100003E
:0100C200003D
:0100C300003C
:0100C400003B
:0100C500003A
:0100C6000039
:0100C7000038
:0100C8000037
:0100C9000036
:0100CA000035
:0100CB000034
:0100CC000033
:0100CD000032
:0100CE000031
:0100CF000030
:0100D000002F
:0100D100002E
:0100D200002D
:0100D300002C
:0100D400002B
:0100D500002A
:0100D6000029
:0100D7000028
:0100D8000027
:0100D9000026
:0100DA000025
:0100DB000024
:0100DC000023
:0100DD000022
:0100DE000021
:0100DF000020
:0100E000001F
:0100E100001E
:0100E200001D
:0100E300001C
:0100E400001B
:0100E500001A
:0100E6000019
:0100E7000018
:0100E8000017
:0100E9000016
:0100EA000015
:0100EB000014
:0100EC000013
:0100ED000012
:0100EE000011
:0100EF000010
:0100F000000F
:0100F100000E
:0100F200000D
:0100F300000C
:0100F400000B
:0100F500000A
:0100F6000009
:0100F7000008
:0100F8000007
:0100F9000006
:0100FA000005
:0100FB000004
:0100FC000003
:0100FD000002
:0100FE000001
:0100FF000000
:0101000000FE
:0101010000FD
:0101020000FC
:0101030000FB
:0101040000FA
:0101050000F9
:0101060000F8
:0101070000F7
:0101080000F6
:0101090000F5
:01010A0000F4
:01010B0000F3
:01010C0000F2
:01010D0000F1
:01010E0000F0
:01010F0000EF
:0101100000EE
:0101110000ED
:0101120000EC
:0101130000EB
:0101140000EA
:0101150000E9
:0101160000E8
:0101170000E7
:0101180000E6
:0101190000E5
:01011A0000E4
:01011B0000E3
:01011C0000E2
:01011D0000E1
:01011E0000E0
:01011F0000DF
:0101200000DE
:0101210000DD
:0101220000DC
:0101230000DB
:0101240000DA
:0101250000D9
:0101260000D8
:0101270000D7
:0101280000D6
:0101290000D5
:01012A0000D4
:01012B0000D3
:01012C0000D2
:01012D0000D1
:01012E0000D0
:01012F0000CF
:0101300000CE
:0101310000CD
:0101320000CC
:0101330000CB
:0101340000CA
:0101350000C9
:0101360000C8
:0101370000C7
:0101380000C6
:0101390000C5
:01013A0000C4
:01013B0000C3
:01013C0000C2
:01013D0000C1
:01013E0000C0
:01013F0000BF
:0101400000BE
:0101410000BD
:0101420000BC
:0101430000BB
:0101440000BA
:0101450000B9
:0101460000B8
:0101470000B7
:0101480000B6
:0101490000B5
:01014A0000B4
:01014B0000B3
:01014C0000B2
:01014D0000B1
:01014E0000B0
:01014F0000AF
:0101500000AE
:0101510000AD
:0101520000AC
:0101530000AB
:0101540000AA
:0101550000A9
:0101560000A8
:0101570000A7
:0101580000A6
:0101590000A5
:01015A0000A4
:01015B0000A3
:01015C0000A2
:01015D0000A1
:01015E0000A0
:01015F00009F
:01016000009E
:01016100009D
:01016200009C
:01016300009B
:01016400009A
:010165000099
:010166000098
:010167000097
:010168000096
:010169000095
:01016A000094
:01016B000093
:01016C000092
:01016D000091
:01016E000090
:01016F00008F
:01017000008E
:01017100008D
:01017200008C
:01017300008B
:01017400008A
:010175000089
:010176000088
:010177000087
:010178000086
:010179000085
:01017A000084
:01017B000083
:01017C000082
:01017D000081
:01017E000080
:01017F00007F
:01018000007E
:01018100007D
:01018200007C
:01018300007B
:01018400007A
:010185000079
:010186000078
:010187000077
:010188000076
:010189000075
:01018A000074
:01018B000073
:01018C000072
:01018D000071
:01018E000070
:01018F00006F
:01019000006E
:01019100006D
:01019200006C
:01019300006B
:01019400006A
:010195000069
:010196000068
:010197000067
:010198000066
:010199000065
:01019A000064
:01019B000063
:01019C000062
:01019D000061
:01019E000060
:01019F00005F
:0101A000005E
:0101A100005D
:0101A200005C
:0101A300005B
:0101A400005A
:0101A5000059
:0101A6000058
:0101A7000057
:0101A8000056
:0101A9000055
:0101AA000054
:0101AB000053
:0101AC000052
:0101AD000051
:0101AE000050
:0101AF00004F
:0101B000004E
:0101B100004D
:0101B200004C
:0101B300004B
:0101B400004A
:0101B5000049
:0101B6000048
:0101B7000047
:0101B8000046
:0101B9000045
:0101BA000044
:0101BB000043
:0101BC000042
:0101BD000041
:0101BE000040
:0101BF00003F
:0101C000003E
:0101C100003D
:0101C200003C
:0101C300003B
:0101C400003A
:0101C5000039
:0101C6000038
:0101C7000037
:0101C8000036
:0101C9000035
:0101CA000034
:0101CB000033
:0101CC000032
:0101CD000031
:0101CE000030
:0101CF00002F
:0101D000002E
:0101D100002D
:0101D200002C
:0101D300002B
:0101D400002A
:0101D5000029
:0101D6000028
:0101D7000027
:0101D8000026
:0101D9000025
:0101DA000024
:0101DB000023
:0101DC000022
:0101DD000021
:0101DE000020
:0101DF00001F
:0101E000001E
:0101E100001D
:0101E200001C
:0101E300001B
:0101E400001A
:0101E5000019
:0101E6000018
:0101E7000017
:0101E8000016
:0101E9000015
:0101EA000014
:0101EB000013
:0101EC000012
:0101ED000011
:0101EE000010
:0101EF00000F
:0101F000000E
:0101F100000D
:0101F200000C
:0101F300000B
:0101F400000A
:0101F5000009
:0101F6000008
:0101F7000007
:0101F8000006
:0101F9000005
:0101FA000004
:0101FB000003
:0101FC000002
:0101FD000001
:0101FE000000
:0101FF0000FF
:0102000000FD
:0102010000FC
:0102020000FB
:0102030000FA
:0102040000F9
:0102050000F8
:0102060000F7
:0102070000F6
:0102080000F5
:0102090000F4
:01020A0000F3
:01020B0000F2
:01020C0000F1
:01020D0000F0
:01020E0000EF
:01020F0000EE
:0102100000ED
:0102110000EC
:0102120000EB
:0102130000EA
:0102140000E9
:0102150000E8
:0102160000E7
:0102170000E6
:0102180000E5
:0102190000E4
:01021A0000E3
:01021B0000E2
:01021C0000E1
:01021D0000E0
:01021E0000DF
:01021F0000DE
:0102200000DD
:0102210000DC
:0102220000DB
:0102230000DA
:0102240000D9
:0102250000D8
:0102260000D7
:0102270000D6
:0102280000D5
:0102290000D4
:01022A0000D3
:01022B0000D2
:01022C0000D1
:01022D0000D0
:01022E0000CF
:01022F0000CE
:0102300000CD
:0102310000CC
:0102320000CB
:0102330000CA
:0102340000C9
:0102350000C8
:0102360000C7
:0102370000C6
:0102380000C5
:0102390000C4
:01023A0000C3
:01023B0000C2
:01023C0000C1
:01023D0000C0
:01023E0000BF
:01023F0000BE
:0102400000BD
:0102410000BC
:0102420000BB
:0102430000BA
:0102440000B9
:0102450000B8
:0102460000B7
:0102470000B6
:0102480000B5
:0102490000B4
:01024A0000B3
:01024B0000B2
:01024C0000B1
:01024D0000B0
:01024E0000AF
:01024F0000AE
:0102500000AD
:0102510000AC
:0102520000AB
:0102530000AA
:0102540000A9
:0102550000A8
:0102560000A7
:0102570000A6
:0102580000A5
:0102590000A4
:01025A0000A3
:01025B0000A2
:01025C0000A1
:01025D0000A0
:01025E00009F
:01025F00009E
:01026000009D
:01026100009C
:01026200009B
:01026300009A
:010264000099
:010265000098
:010266000097
:010267000096
:010268000095
:010269000094
:01026A000093
:01026B000092
:01026C000091
:01026D000090
:01026E00008F
:01026F00008E
:01027000008D
:01027100008C
:01027200008B
:01027300008A
:010274000089
:010275000088
:010276000087
:010277000086
:010278000085
:010279000084
:01027A000083
:01027B000082
:01027C000081
:01027D000080
:01027E00007F
:01027F00007E
:01028000007D
:01028100007C
:01028200007B
:01028300007A
:010284000079
:010285000078
:010286000077
:010287000076
:010288000075
:010289000074
:01028A000073
:01028B000072
:01028C000071
:01028D000070
:01028E00006F
:01028F00006E
:01029000006D
:01029100006C
:01029200006B
:01029300006A
:010294000069
:010295000068
:010296000067
:010297000066
:010298000065
:010299000064
:01029A000063
:01029B000062
:01029C000061
:01029D000060
:01029E00005F
:01029F00005E
:0102A000005D
:0102A100005C
:0102A200005B
:0102A300005A
:0102A4000059
:0102A5000058
:0102A6000057
:0102A7000056
:0102A8000055
:0102A9000054
:0102AA000053
:0102AB000052
:0102AC000051
:0102AD000050
:0102AE00004F
:0102AF00004E
:0102B000004D
:0102B100004C
:0102B200004B
:0102B300004A
:0102B4000049
:0102B5000048
:0102B6000047
:0102B7000046
:0102B8000045
:0102B9000044
:0102BA000043
:0102BB000042
:0102BC000041
:0102BD000040
:0102BE00003F
:0102BF00003E
:0102C000003D
:0102C100003C
:0102C200003B
:0102C300003A
:0102C4000039
:0102C5000038
:0102C6000037
:0102C7000036
:0102C8000035
:0102C9000034
:0102CA000033
:0102CB000032
:0102CC000031
:0102CD000030
:0102CE00002F
:0102CF00002E
:0102D000002D
:0102D100002C
:0102D200002B
:0102D300002A
:0102D4000029
:0102D5000028
:0102D6000027
:0102D7000026
:0102D8000025
:0102D9000024
:0102DA000023
:0102DB000022
:0102DC000021
:0102DD000020
:0102DE00001F
:0102DF00001E
:0102E000001D
:0102E100001C
:0102E200001B
:0102E300001A
:0102E4000019
:0102E5000018
:0102E6000017
:0102E7000016
:0102E8000015
:0102E9000014
:0102EA000013
:0102EB000012
:0102EC000011
:0102ED000010
:0102EE00000F
:0102EF00000E
:0102F000000D
:0102F100000C
:0102F200000B
:0102F300000A
:0102F4000009
:0102F5000008
:0102F6000007
:0102F7000006
:0102F8000005
:0102F9000004
:0102FA000003
:0102FB000002
:0102FC000001
:0102FD000000
:0102FE0000FF
:0102FF0000FE
:0103000000FC
:0103010000FB
:0103020000FA
:0103030000F9
:0103040000F8
:0103050000F7
:0103060000F6
:0103070000F5
:0103080000F4
:0103090000F3
:01030A0000F2
:01030B0000F1
:01030C0000F0
:01030D0000EF
:01030E0000EE
:01030F0000ED
:0103100000EC
:0103110000EB
:0103120000EA
:0103130000E9
:0103140000E8
:0103150000E7
:0103160000E6
:0103170000E5
:0103180000E4
:0103190000E3
:01031A0000E2
:01031B0000E1
:01031C0000E0
:01031D0000DF
:01031E0000DE
:01031F0000DD
:0103200000DC
:0103210000DB
:0103220000DA
:0103230000D9
:0103240000D8
:0103250000D7
:0103260000D6
:0103270000D5
:0103280000D4
:0103290000D3
:01032A0000D2
:01032B0000D1
:01032C0000D0
:01032D0000CF
:01032E0000CE
:01032F0000CD
:0103300000CC
:0103310000CB
:0103320000CA
:0103330000C9
:0103340000C8
:0103350000C7
:0103360000C6
:0103370000C5
:0103380000C4
:0103390000C3
:01033A0000C2
:01033B0000C1
:01033C0000C0
:01033D0000BF
:01033E0000BE
:01033F0000BD
:0103400000BC
:0103410000BB
:0103420000BA
:0103430000B9
:0103440000B8
:0103450000B7
:0103460000B6
:0103470000B5
:0103480000B4
:0103490000B3
:01034A0000B2
:01034B0000B1
:01034C0000B0
:01034D0000AF
:01034E0000AE
:01034F0000AD
:0103500000AC
:0103510000AB
:0103520000AA
:0103530000A9
:0103540000A8
:0103550000A7
:0103560000A6
:0103570000A5
:0103580000A4
:0103590000A3
:01035A0000A2
:01035B0000A1
:01035C0000A0
:01035D00009F
:01035E00009E
:01035F00009D
:01036000009C
:01036100009B
:01036200009A
:010363000099
:010364000098
:010365000097
:010366000096
:010367000095
:010368000094
:010369000093
:01036A000092
:01036B000091
:01036C000090
:01036D00008F
:01036E00008E
:01036F00008D
:01037000008C
:01037100008B
:01037200008A
:010373000089
:010374000088
:010375000087
:010376000086
:010377000085
:010378000084
:010379000083
:01037A000082
:01037B000081
:01037C000080
:01037D00007F
:01037E00007E
:01037F00007D
:01038000007C
:01038100007B
:01038200007A
:010383000079
:010384000078
:010385000077
:010386000076
:010387000075
:010388000074
:010389000073
:01038A000072
:01038B000071
:01038C000070
:01038D00006F
:01038E00006E
:01038F00006D
:01039000006C
:01039100006B
:01039200006A
:010393000069
:010394000068
:010395000067
:010396000066
:010397000065
:010398000064
:010399000063
:01039A000062
:01039B000061
:01039C000060
:01039D00005F
:01039E00005E
:01039F00005D
:0103A000005C
:0103A100005B
:0103A200005A
:0103A3000059
:0103A4000058
:0103A5000057
:0103A6000056
:0103A7000055
:0103A8000054
:0103A9000053
:0103AA000052
:0103AB000051
:0103AC000050
:0103AD00004F
:0103AE00004E
:0103AF00004D
:0103B000004C
:0103B100004B
:0103B200004A
:0103B3000049
:0103B4000048
:0103B5000047
:0103B6000046
:0103B7000045
:0103B8000044
:0103B9000043
:0103BA000042
:0103BB000041
:0103BC000040
:0103BD00003F
:0103BE00003E
:0103BF00003D
:0103C000003C
:0103C100003B
:0103C200003A
:0103C3000039
:0103C4000038
:0103C5000037
:0103C6000036
:0103C7000035
:0103C8000034
:0103C9000033
:0103CA000032
:0103CB000031
:0103CC000030
:0103CD00002F
:0103CE00002E
:0103CF00002D
:0103D000002C
:0103D100002B
:0103D200002A
:0103D3000029
:0103D4000028
:0103D5000027
:0103D6000026
:0103D7000025
:0103D8000024
:0103D9000023
:0103DA000022
:0103DB000021
:0103DC000020
:0103DD00001F
:0103DE00001E
:0103DF00001D
:0103E000001C
:0103E100001B
:0103E200001A
:0103E3000019
:0103E4000018
:0103E5000017
:0103E6000016
:0103E7000015
:0103E8000014
:0103E9000013
:0103EA000012
:0103EB000011
:0103EC000010
:0103ED00000F
:0103EE00000E
:0103EF00000D
:0103F000000C
:0103F100000B
:0103F200000A
:0103F3000009
:0103F4000008
:0103F5000007
:0103F6000006
:0103F7000005
:0103F8000004
:0103F9000003
:0103FA000002
:0103FB000001
:0103FC000000
:0103FD0000FF
:0103FE0000FE
:0103FF0000FD
:0104000000FB
:0104010000FA
:0104020000F9
:0104030000F8
:0104040000F7
:0104050000F6
:0104060000F5
:0104070000F4
:0104080000F3
:0104090000F2
:01040A0000F1
:01040B0000F0
:01040C0000EF
:01040D0000EE
:01040E0000ED
:01040F0000EC
:0104100000EB
:0104110000EA
:0104120000E9
:0104130000E8
:0104140000E7
:0104150000E6
:0104160000E5
:0104170000E4
:0104180000E3
:0104190000E2
:01041A0000E1
:01041B0000E0
:01041C0000DF
:01041D0000DE
:01041E0000DD
:01041F0000DC
:0104200000DB
:0104210000DA
:0104220000D9
:0104230000D8
:0104240000D7
:0104250000D6
:0104260000D5
:0104270000D4
:0104280000D3
:0104290000D2
:01042A0000D1
:01042B0000D0
:01042C0000CF
:01042D0000CE
:01042E0000CD
:01042F0000CC
:0104300000CB
:0104310000CA
:0104320000C9
:0104330000C8
:0104340000C7
:0104350000C6
:0104360000C5
:0104370000C4
:0104380000C3
:0104390000C2
:01043A0000C1
:01043B0000C0
:01043C0000BF
:01043D0000BE
:01043E0000BD
:01043F0000BC
:0104400000BB
:0104410000BA
:0104420000B9
:0104430000B8
:0104440000B7
:0104450000B6
:0104460000B5
:0104470000B4
:0104480000B3
:0104490000B2
:01044A0000B1
:01044B0000B0
:01044C0000AF
:01044D0000AE
:01044E0000AD
:01044F0000AC
:0104500000AB
:0104510000AA
:0104520000A9
:0104530000A8
:0104540000A7
:0104550000A6
:0104560000A5
:0104570000A4
:0104580000A3
:0104590000A2
:01045A0000A1
:01045B0000A0
:01045C00009F
:01045D00009E
:01045E00009D
:01045F00009C
:01046000009B
:01046100009A
:010462000099
:010463000098
:010464000097
:010465000096
:010466000095
:010467000094
:010468000093
:010469000092
:01046A000091
:01046B000090
:01046C00008F
:01046D00008E
:01046E00008D
:01046F00008C
:01047000008B
:01047100008A
:010472000089
:010473000088
:010474000087
:010475000086
:010476000085
:010477000084
:010478000083
:010479000082
:01047A000081
:01047B000080
:01047C00007F
:01047D00007E
:01047E00007D
:01047F00007C
:01048000007B
:01048100007A
:010482000079
:010483000078
:010484000077
:010485000076
:010486000075
:010487000074
:010488000073
:010489000072
:01048A000071
:01048B000070
:01048C00006F
:01048D00006E
:01048E00006D
:01048F00006C
:01049000006B
:01049100006A
:010492000069
:010493000068
:010494000067
:010495000066
:010496000065
:010497000064
:010498000063
:010499000062
:01049A000061
:01049B000060
:01049C00005F
:01049D00005E
:01049E00005D
:01049F00005C
:0104A000005B
:0104A100005A
:0104A2000059
:0104A3000058
:0104A4000057
:0104A5000056
:0104A6000055
:0104A7000054
:0104A8000053
:0104A9000052
:0104AA000051
:0104AB000050
:0104AC00004F
:0104AD00004E
:0104AE00004D
:0104AF00004C
:0104B000004B
:0104B100004A
:0104B2000049
:0104B3000048
:0104B4000047
:0104B5000046
:0104B6000045
:0104B7000044
:0104B8000043
:0104B9000042
:0104BA000041
:0104BB000040
:0104BC00003F
:0104BD00003E
:0104BE00003D
:0104BF00003C
:0104C000003B
:0104C100003A
:0104C2000039
:0104C3000038
:0104C4000037
:0104C5000036
:0104C6000035
:0104C7000034
:0104C8000033
:0104C9000032
:0104CA000031
:0104CB000030
:0104CC00002F
:0104CD00002E
:0104CE00002D
:0104CF00002C
:0104D000002B
:0104D100002A
:0104D2000029
:0104D3000028
:0104D4000027
:0104D5000026
:0104D6000025
:0104D7000024
:0104D8000023
:0104D9000022
:0104DA000021
:0104DB000020
:0104DC00001F
:0104DD00001E
:0104DE00001D
:0104DF00001C
:0104E000001B
:0104E100001A
:0104E2000019
:0104E3000018
:0104E4000017
:0104E5000016
:0104E6000015
:0104E7000014
:0104E8000013
:0104E9000012
:0104EA000011
:0104EB000010
:0104EC00000F
:0104ED00000E
:0104EE00000D
:0104EF00000C
:0104F000000B
:0104F100000A
:0104F2000009
:0104F3000008
:0104F4000007
:0104F5000006
:0104F6000005
:0104F7000004
:0104F8000003
:0104F9000002
:0104FA000001
:0104FB000000
:0104FC0000FF
:0104FD0000FE
:0104FE0000FD
:0104FF0000FC
:0105000000FA
:0105010000F9
:0105020000F8
:0105030000F7
:0105040000F6
:0105050000F5
:0105060000F4
:0105070000F3
:0105080000F2
:0105090000F1
:01050A0000F0
:01050B0000EF
:01050C0000EE
:01050D0000ED
:01050E0000EC
:01050F0000EB
:0105100000EA
:0105110000E9
:0105120000E8
:0105130000E7
:0105140000E6
:0105150000E5
:0105160000E4
:0105170000E3
:0105180000E2
:0105190000E1
:01051A0000E0
:01051B0000DF
:01051C0000DE
:01051D0000DD
:01051E0000DC
:01051F0000DB
:0105200000DA
:0105210000D9
:0105220000D8
:0105230000D7
:0105240000D6
:0105250000D5
:0105260000D4
:0105270000D3
:0105280000D2
:0105290000D1
:01052A0000D0
:01052B0000CF
:01052C0000CE
:01052D0000CD
:01052E0000CC
:01052F0000CB
:0105300000CA
:0105310000C9
:0105320000C8
:0105330000C7
:0105340000C6
:0105350000C5
:0105360000C4
:0105370000C3
:0105380000C2
:0105390000C1
:01053A0000C0
:01053B0000BF
:01053C0000BE
:01053D0000BD
:01053E0000BC
:01053F0000BB
:0105400000BA
:0105410000B9
:0105420000B8
:0105430000B7
:0105440000B6
:0105450000B5
:0105460000B4
:0105470000B3
:0105480000B2
:0105490000B1
:01054A0000B0
:01054B0000AF
:01054C0000AE
:01054D0000AD
:01054E0000AC
:01054F0000AB
:0105500000AA
:0105510000A9
:0105520000A8
:0105530000A7
:0105540000A6
:0105550000A5
:0105560000A4
:0105570000A3
:0105580000A2
:0105590000A1
:01055A0000A0
:01055B00009F
:01055C00009E
:01055D00009D
:01055E00009C
:01055F00009B
:01056000009A
:010561000099
:010562000098
:010563000097
:010564000096
:010565000095
:010566000094
:010567000093
:010568000092
:010569000091
:01056A000090
:01056B00008F
:01056C00008E
:01056D00008D
:01056E00008C
:01056F00008B
:01057000008A
:010571000089
:010572000088
:010573000087
:010574000086
:010575000085
:010576000084
:010577000083
:010578000082
:010579000081
:01057A000080
:01057B00007F
:01057C00007E
:01057D00007D
:01057E00007C
:01057F00007B
:01058000007A
:010581000475
:010582000474
:010583000473
:010584000076
:010585000075
:010586000074
:010587000073
:010588000072
:010589000071
:01058A000070
:01058B00006F
:01058C00006E
:01058D00006D
:01058E00006C
:01058F00006B
:010590000268
:010591000267
:010592000266
:010593000067
:010594000066
:010595000065
:010596000460
:01059700045F
:01059800045E
:010599000061
:01059A000060
:01059B00005F
:01059C00005E
:01059D00005D
:01059E00005C
:01059F00005B
:0105A000005A
:0105A1000059
:0105A2000058
:0105A3000057
:0105A4000056
:0105A5000055
:0105A6000054
:0105A7000053
:0105A8000052
:0105A9000051
:0105AA000050
:0105AB00004F
:0105AC00004E
:0105AD00004D
:0105AE00004C
:0105AF00004B
:0105B0000248
:0105B1000247
:0105B2000246
:0105B3000047
:0105B4000046
:0105B5000045
:0105B6000044
:0105B7000043
:0105B8000042
:0105B9000041
:0105BA000040
:0105BB00003F
:0105BC00003E
:0105BD00003D
:0105BE00003C
:0105BF00003B
:0105C000003A
:0105C1000039
:0105C2000038
:0105C3000037
:0105C4000036
:0105C5000035
:0105C6000034
:0105C7000033
:0105C8000032
:0105C9000031
:0105CA000030
:0105CB00002F
:0105CC00002E
:0105CD00002D
:0105CE00002C
:0105CF00002B
:0105D000002A
:0105D1000029
:0105D2000028
:0105D3000027
:0105D4000026
:0105D5000025
:0105D6000024
:0105D7000023
:0105D8000022
:0105D9000021
:0105DA000020
:0105DB00001F
:0105DC00001E
:0105DD00001D
:0105DE00001C
:0105DF000417
:0105E0000416
:0105E1000415
:0105E2000414
:0105E3000413
:0105E4000016
:0105E5000015
:0105E6000014
:0105E7000013
:0105E8000012
:0105E9000011
:0105EA000010
:0105EB00000F
:0105EC00000E
:0105ED00000D
:0105EE00000C
:0105EF00000B
:0105F000000A
:0105F1000009
:0105F2000008
:0105F3000007
:0105F4000006
:0105F5000005
:0105F6000004
:0105F7000003
:0105F8000002
:0105F9000001
:0105FA000000
:0105FB0000FF
:0105FC0000FE
:0105FD0000FD
:0105FE0000FC
:0105FF0000FB
:0106000000F9
:0106010000F8
:0106020000F7
:0106030000F6
:0106040000F5
:0106050000F4
:0106060000F3
:0106070000F2
:0106080000F1
:0106090000F0
:01060A0000EF
:01060B0000EE
:01060C0000ED
:01060D0000EC
:01060E0000EB
:01060F0000EA
:0106100000E9
:0106110000E8
:0106120000E7
:0106130000E6
:0106140000E5
:0106150000E4
:0106160000E3
:0106170000E2
:0106180000E1
:0106190000E0
:01061A0000DF
:01061B0000DE
:01061C0000DD
:01061D0000DC
:01061E0000DB
:01061F0000DA
:0106200000D9
:0106210000D8
:0106220000D7
:0106230000D6
:0106240000D5
:0106250000D4
:0106260000D3
:0106270000D2
:0106280000D1
:0106290000D0
:01062A0000CF
:01062B0000CE
:01062C0000CD
:01062D0000CC
:01062E0000CB
:01062F0000CA
:0106300000C9
:0106310000C8
:0106320000C7
:0106330000C6
:0106340000C5
:0106350000C4
:0106360000C3
:0106370000C2
:0106380000C1
:0106390000C0
:01063A0000BF
:01063B0000BE
:01063C0000BD
:01063D0000BC
:01063E0000BB
:01063F0000BA
:0106400000B9
:0106410000B8
:0106420000B7
:0106430000B6
:0106440000B5
:0106450000B4
:0106460000B3
:0106470000B2
:0106480000B1
:0106490000B0
:01064A0000AF
:01064B0000AE
:01064C0000AD
:01064D0000AC
:01064E0000AB
:01064F0000AA
:0106500000A9
:0106510000A8
:0106520000A7
:0106530000A6
:0106540000A5
:0106550000A4
:0106560000A3
:0106570000A2
:0106580000A1
:0106590000A0
:01065A00009F
:01065B00009E
:01065C00009D
:01065D00009C
:01065E00009B
:01065F00009A
:010660000099
:010661000098
:010662000097
:010663000096
:010664000095
:010665000094
:010666000093
:010667000092
:010668000091
:010669000090
:01066A00008F
:01066B00008E
:01066C00008D
:01066D00008C
:01066E00008B
:01066F00008A
:010670000089
:010671000088
:010672000087
:010673000086
:010674000085
:010675000480
:01067600047F
:01067700047E
:01067800047D
:010679000080
:01067A00007F
:01067B00007E
:01067C00007D
:01067D00007C
:01067E00007B
:01067F00007A
:010680000079
:010681000078
:010682000077
:010683000076
:010684000273
:010685000272
:010686000271
:010687000270
:010688000071
:010689000070
:01068A00006F
:01068B00046A
:01068C000469
:01068D000468
:01068E000467
:01068F00006A
:010690000069
:010691000068
:010692000067
:010693000066
:010694000065
:010695000064
:010696000063
:010697000062
:010698000061
:010699000060
:01069A00005F
:01069B00005E
:01069C00005D
:01069D00005C
:01069E00005B
:01069F00005A
:0106A0000059
:0106A1000058
:0106A2000057
:0106A3000056
:0106A4000055
:0106A5000252
:0106A6000251
:0106A7000250
:0106A800024F
:0106A9000050
:0106AA00004F
:0106AB00004E
:0106AC00004D
:0106AD00004C
:0106AE00004B
:0106AF00004A
:0106B0000049
:0106B1000048
:0106B2000047
:0106B3000046
:0106B4000045
:0106B5000044
:0106B6000043
:0106B7000042
:0106B8000041
:0106B9000040
:0106BA00023D
:0106BB00023C
:0106BC00023B
:0106BD00023A
:0106BE000635
:0106BF000436
:0106C0000435
:0106C1000434
:0106C2000433
:0106C3000432
:0106C4000431
:0106C5000034
:0106C6000033
:0106C7000032
:0106C8000031
:0106C9000030
:0106CA00002F
:0106CB00002E
:0106CC00002D
:0106CD00002C
:0106CE00002B
:0106CF00002A
:0106D0000425
:0106D1000424
:0106D2000423
:0106D3000422
:0106D4000421
:0106D5000420
:0106D600041F
:0106D700041E
:0106D800041D
:0106D9000020
:0106DA00001F
:0106DB00001E
:0106DC00001D
:0106DD00001C
:0106DE00001B
:0106DF00001A
:0106E0000019
:0106E1000018
:0106E2000017
:0106E3000016
:0106E4000015
:0106E5000014
:0106E6000013
:0106E7000012
:0106E8000011
:0106E9000010
:0106EA00000F
:0106EB00000E
:0106EC00000D
:0106ED00000C
:0106EE00000B
:0106EF00000A
:0106F0000009
:0106F1000008
:0106F2000007
:0106F3000006
:0106F4000005
:0106F5000004
:0106F6000003
:0106F7000002
:0106F8000001
:0106F9000000
:0106FA0000FF
:0106FB0000FE
:0106FC0000FD
:0106FD0000FC
:0106FE0000FB
:0106FF0000FA
:0107000000F8
:0107010000F7
:0107020000F6
:0107030000F5
:0107040000F4
:0107050000F3
:0107060000F2
:0107070000F1
:0107080000F0
:0107090000EF
:01070A0000EE
:01070B0000ED
:01070C0000EC
:01070D0000EB
:01070E0000EA
:01070F0000E9
:0107100000E8
:0107110000E7
:0107120000E6
:0107130000E5
:0107140000E4
:0107150000E3
:0107160000E2
:0107170000E1
:0107180000E0
:0107190000DF
:01071A0000DE
:01071B0000DD
:01071C0000DC
:01071D0000DB
:01071E0000DA
:01071F0000D9
:0107200000D8
:0107210000D7
:0107220000D6
:0107230000D5
:0107240000D4
:0107250000D3
:0107260000D2
:0107270000D1
:0107280000D0
:0107290000CF
:01072A0000CE
:01072B0000CD
:01072C0000CC
:01072D0000CB
:01072E0000CA
:01072F0000C9
:0107300000C8
:0107310000C7
:0107320000C6
:0107330000C5
:0107340000C4
:0107350000C3
:0107360000C2
:0107370000C1
:0107380000C0
:0107390000BF
:01073A0000BE
:01073B0000BD
:01073C0000BC
:01073D0000BB
:01073E0000BA
:01073F0000B9
:0107400000B8
:0107410000B7
:0107420000B6
:0107430000B5
:0107440000B4
:0107450000B3
:0107460000B2
:0107470000B1
:0107480000B0
:0107490000AF
:01074A0000AE
:01074B0000AD
:01074C0000AC
:01074D0000AB
:01074E0000AA
:01074F0000A9
:0107500000A8
:0107510000A7
:0107520000A6
:0107530000A5
:0107540000A4
:0107550000A3
:0107560000A2
:0107570000A1
:0107580000A0
:01075900009F
:01075A00009E
:01075B00009D
:01075C00009C
:01075D00009B
:01075E00009A
:01075F000099
:010760000098
:010761000097
:010762000096
:010763000095
:010764000094
:010765000093
:010766000092
:010767000091
:010768000090
:01076900008F
:01076A00048A
:01076B000489
:01076C000488
:01076D00008B
:01076E00008A
:01076F000089
:010770000484
:010771000483
:010772000482
:010773000481
:010774000480
:01077500047F
:01077600047E
:01077700047D
:01077800047C
:010779000679
:01077A000678
:01077B000677
:01077C000478
:01077D000477
:01077E00007A
:01077F000079
:010780000078
:010781000473
:010782000472
:010783000471
:010784000074
:010785000073
:010786000072
:010787000071
:010788000070
:01078900006F
:01078A00006E
:01078B00006D
:01078C00006C
:01078D00006B
:01078E00006A
:01078F000069
:010790000068
:010791000067
:010792000066
:010793000065
:010794000064
:010795000063
:010796000062
:010797000061
:010798000060
:01079900005F
:01079A00005E
:01079B00025B
:01079C00025A
:01079D000259
:01079E00005A
:01079F000059
:0107A0000058
:0107A1000057
:0107A2000056
:0107A3000055
:0107A4000054
:0107A5000053
:0107A6000052
:0107A7000051
:0107A8000050
:0107A900004F
:0107AA00004E
:0107AB00004D
:0107AC00004C
:0107AD000249
:0107AE000248
:0107AF000247
:0107B0000246
:0107B1000641
:0107B2000640
:0107B300063F
:0107B400063E
:0107B500063D
:0107B600043E
:0107B700043D
:0107B800043C
:0107B900043B
:0107BA00043A
:0107BB000439
:0107BC00003C
:0107BD00003B
:0107BE00003A
:0107BF000039
:0107C0000038
:0107C1000037
:0107C2000036
:0107C3000035
:0107C4000430
:0107C500042F
:0107C600042E
:0107C700042D
:0107C800042C
:0107C900042B
:0107CA00042A
:0107CB000429
:0107CC000428
:0107CD000427
:0107CE00002A
:0107CF000029
:0107D0000028
:0107D1000027
:0107D2000026
:0107D3000025
:0107D4000024
:0107D5000023
:0107D6000022
:0107D7000021
:0107D8000020
:0107D900001F
:0107DA00001E
:0107DB00001D
:0107DC00001C
:0107DD00001B
:0107DE00001A
:0107DF000019
:0107E0000018
:0107E1000017
:0107E2000016
:0107E3000015
:0107E4000014
:0107E5000013
:0107E6000012
:0107E7000011
:0107E8000010
:0107E900000F
:0107EA00000E
:0107EB00000D
:0107EC00000C
:0107ED00000B
:0107EE00000A
:0107EF000009
:0107F0000008
:0107F1000007
:0107F2000006
:0107F3000005
:0107F4000004
:0107F5000003
:0107F6000002
:0107F7000001
:0107F8000000
:0107F90000FF
:0107FA0000FE
:0107FB0000FD
:0107FC0000FC
:0107FD0000FB
:0107FE0000FA
:0107FF0000F9
:0108000000F7
:0108010000F6
:0108020000F5
:0108030000F4
:0108040000F3
:0108050000F2
:0108060000F1
:0108070000F0
:0108080000EF
:0108090000EE
:01080A0000ED
:01080B0000EC
:01080C0000EB
:01080D0000EA
:01080E0000E9
:01080F0000E8
:0108100000E7
:0108110000E6
:0108120000E5
:0108130000E4
:0108140000E3
:0108150000E2
:0108160000E1
:0108170000E0
:0108180000DF
:0108190000DE
:01081A0000DD
:01081B0000DC
:01081C0000DB
:01081D0000DA
:01081E0000D9
:01081F0000D8
:0108200000D7
:0108210000D6
:0108220000D5
:0108230000D4
:0108240000D3
:0108250000D2
:0108260000D1
:0108270000D0
:0108280000CF
:0108290000CE
:01082A0000CD
:01082B0000CC
:01082C0000CB
:01082D0000CA
:01082E0000C9
:01082F0000C8
:0108300000C7
:0108310000C6
:0108320000C5
:0108330000C4
:0108340000C3
:0108350000C2
:0108360000C1
:0108370000C0
:0108380000BF
:0108390000BE
:01083A0000BD
:01083B0000BC
:01083C0000BB
:01083D0000BA
:01083E0000B9
:01083F0000B8
:0108400000B7
:0108410000B6
:0108420000B5
:0108430000B4
:0108440000B3
:0108450000B2
:0108460000B1
:0108470000B0
:0108480000AF
:0108490000AE
:01084A0000AD
:01084B0000AC
:01084C0000AB
:01084D0000AA
:01084E0000A9
:01084F0000A8
:0108500000A7
:0108510000A6
:0108520000A5
:0108530000A4
:0108540000A3
:0108550000A2
:0108560000A1
:0108570000A0
:01085800009F
:01085900009E
:01085A00009D
:01085B00009C
:01085C00009B
:01085D00009A
:01085E000099
:01085F000494
:010860000493
:010861000492
:010862000095
:010863000094
:010864000093
:01086500048E
:01086600048D
:01086700048C
:01086800048B
:01086900048A
:01086A000489
:01086B000488
:01086C000487
:01086D000486
:01086E000683
:01086F000682
:010870000681
:010871000482
:010872000481
:010873000084
:010874000083
:010875000082
:01087600047D
:01087700047C
:01087800047B
:01087900047A
:01087A00007D
:01087B00007C
:01087C00007B
:01087D00007A
:01087E000178
:01087F000177
:010880000176
:010881000175
:010882000075
:010883000074
:010884000073
:010885000072
:010886000071
:010887000070
:01088800006F
:01088900006E
:01088A00006D
:01088B00006C
:01088C00006B
:01088D00006A
:01088E000069
:01088F000068
:010890000265
:010891000264
:010892000263
:010893000262
:010894000063
:010895000062
:010896000061
:010897000060
:01089800005F
:01089900005E
:01089A00005D
:01089B00005C
:01089C00005B
:01089D00005A
:01089E000059
:01089F000058
:0108A0000255
:0108A1000254
:0108A2000253
:0108A3000252
:0108A400064D
:0108A500064C
:0108A600064B
:0108A7000749
:0108A8000748
:0108A9000747
:0108AA000746
:0108AB000646
:0108AC000447
:0108AD000446
:0108AE000445
:0108AF000444
:0108B0000443
:0108B1000541
:0108B2000144
:0108B3000143
:0108B4000142
:0108B5000042
:0108B6000041
:0108B7000040
:0108B800043B
:0108B900043A
:0108BA000439
:0108BB000438
:0108BC000437
:0108BD000436
:0108BE000435
:0108BF000434
:0108C0000037
:0108C1000036
:0108C2000035
:0108C3000034
:0108C4000033
:0108C5000032
:0108C6000031
:0108C7000030
:0108C800002F
:0108C900002E
:0108CA00002D
:0108CB00002C
:0108CC00002B
:0108CD00002A
:0108CE000029
:0108CF000028
:0108D0000027
:0108D1000026
:0108D2000025
:0108D3000024
:0108D4000023
:0108D5000022
:0108D6000021
:0108D7000020
:0108D800001F
:0108D900001E
:0108DA00001D
:0108DB00001C
:0108DC00001B
:0108DD00001A
:0108DE000019
:0108DF000018
:0108E0000017
:0108E1000016
:0108E2000015
:0108E3000014
:0108E4000013
:0108E5000012
:0108E6000011
:0108E7000010
:0108E800000F
:0108E900000E
:0108EA00000D
:0108EB00000C
:0108EC00000B
:0108ED00000A
:0108EE000009
:0108EF000008
:0108F0000007
:0108F1000006
:0108F2000005
:0108F3000004
:0108F4000003
:0108F5000002
:0108F6000001
:0108F7000000
:0108F80000FF
:0108F90000FE
:0108FA0000FD
:0108FB0000FC
:0108FC0000FB
:0108FD0000FA
:0108FE0000F9
:0108FF0000F8
:0109000000F6
:0109010000F5
:0109020000F4
:0109030000F3
:0109040000F2
:0109050000F1
:0109060000F0
:0109070000EF
:0109080000EE
:0109090000ED
:01090A0000EC
:01090B0000EB
:01090C0000EA
:01090D0000E9
:01090E0000E8
:01090F0000E7
:0109100000E6
:0109110000E5
:0109120000E4
:0109130000E3
:0109140000E2
:0109150000E1
:0109160000E0
:0109170000DF
:0109180000DE
:0109190000DD
:01091A0000DC
:01091B0000DB
:01091C0000DA
:01091D0000D9
:01091E0000D8
:01091F0000D7
:0109200000D6
:0109210000D5
:0109220000D4
:0109230000D3
:0109240000D2
:0109250000D1
:0109260000D0
:0109270000CF
:0109280000CE
:0109290000CD
:01092A0000CC
:01092B0000CB
:01092C0000CA
:01092D0000C9
:01092E0000C8
:01092F0000C7
:0109300000C6
:0109310000C5
:0109320000C4
:0109330000C3
:0109340000C2
:0109350000C1
:0109360000C0
:0109370000BF
:0109380000BE
:0109390000BD
:01093A0000BC
:01093B0000BB
:01093C0000BA
:01093D0000B9
:01093E0000B8
:01093F0000B7
:0109400000B6
:0109410000B5
:0109420000B4
:0109430000B3
:0109440000B2
:0109450000B1
:0109460000B0
:0109470000AF
:0109480000AE
:0109490000AD
:01094A0000AC
:01094B0000AB
:01094C0000AA
:01094D0000A9
:01094E0000A8
:01094F0000A7
:0109500000A6
:0109510000A5
:0109520000A4
:01095300049F
:01095400049E
:01095500049D
:01095600049C
:01095700009F
:01095800009E
:01095900009D
:01095A000498
:01095B000497
:01095C000496
:01095D000495
:01095E000494
:01095F000493
:010960000492
:010961000491
:01096200068E
:01096300068D
:01096400068C
:01096500068B
:01096600048C
:01096700048B
:01096800008E
:01096900008D
:01096A00008C
:01096B00008B
:01096C000486
:01096D000485
:01096E000583
:01096F000186
:010970000185
:010971000184
:010972000183
:010973000182
:010974000181
:010975000180
:01097600017F
:01097700007F
:01097800007E
:01097900007D
:01097A00007C
:01097B00007B
:01097C00007A
:01097D000079
:01097E000078
:01097F000077
:010980000076
:010981000075
:010982000074
:010983000073
:010984000072
:010985000071
:01098600026E
:01098700026D
:01098800026C
:01098900006D
:01098A00006C
:01098B00006B
:01098C00006A
:01098D000069
:01098E000068
:01098F000067
:010990000066
:010991000065
:010992000064
:010993000063
:010994000062
:01099500025F
:01099600025E
:01099700025D
:01099800025C
:010999000657
:01099A000458
:01099B000457
:01099C000555
:01099D000554
:01099E000355
:01099F000354
:0109A0000254
:0109A1000055
:0109A2000450
:0109A300044F
:0109A400044E
:0109A500054C
:0109A600054B
:0109A700054A
:0109A800014D
:0109A900004D
:0109AA00004C
:0109AB00004B
:0109AC000446
:0109AD000445
:0109AE000444
:0109AF000443
:0109B0000046
:0109B1000045
:0109B2000044
:0109B3000043
:0109B4000042
:0109B5000041
:0109B6000040
:0109B700003F
:0109B800003E
:0109B900003D
:0109BA00003C
:0109BB00003B
:0109BC00003A
:0109BD000039
:0109BE000038
:0109BF000037
:0109C0000036
:0109C1000035
:0109C2000034
:0109C3000033
:0109C4000032
:0109C5000031
:0109C6000030
:0109C700002F
:0109C800002E
:0109C900002D
:0109CA00002C
:0109CB00002B
:0109CC00002A
:0109CD000029
:0109CE000028
:0109CF000027
:0109D0000026
:0109D1000025
:0109D2000024
:0109D3000023
:0109D4000022
:0109D5000021
:0109D6000020
:0109D700001F
:0109D800001E
:0109D900001D
:0109DA00001C
:0109DB00001B
:0109DC00001A
:0109DD000019
:0109DE000018
:0109DF000017
:0109E0000016
:0109E1000015
:0109E2000014
:0109E3000013
:0109E4000012
:0109E5000011
:0109E6000010
:0109E700000F
:0109E800000E
:0109E900000D
:0109EA00000C
:0109EB00000B
:0109EC00000A
:0109ED000009
:0109EE000008
:0109EF000007
:0109F0000006
:0109F1000005
:0109F2000004
:0109F3000003
:0109F4000002
:0109F5000001
:0109F6000000
:0109F70000FF
:0109F80000FE
:0109F90000FD
:0109FA0000FC
:0109FB0000FB
:0109FC0000FA
:0109FD0000F9
:0109FE0000F8
:0109FF0000F7
:010A000000F5
:010A010000F4
:010A020000F3
:010A030000F2
:010A040000F1
:010A050000F0
:010A060000EF
:010A070000EE
:010A080000ED
:010A090000EC
:010A0A0000EB
:010A0B0000EA
:010A0C0000E9
:010A0D0000E8
:010A0E0000E7
:010A0F0000E6
:010A100000E5
:010A110000E4
:010A120000E3
:010A130000E2
:010A140000E1
:010A150000E0
:010A160000DF
:010A170000DE
:010A180000DD
:010A190000DC
:010A1A0000DB
:010A1B0000DA
:010A1C0000D9
:010A1D0000D8
:010A1E0000D7
:010A1F0000D6
:010A200000D5
:010A210000D4
:010A220000D3
:010A230000D2
:010A240000D1
:010A250000D0
:010A260000CF
:010A270000CE
:010A280000CD
:010A290000CC
:010A2A0000CB
:010A2B0000CA
:010A2C0000C9
:010A2D0000C8
:010A2E0000C7
:010A2F0000C6
:010A300000C5
:010A310000C4
:010A320000C3
:010A330000C2
:010A340000C1
:010A350000C0
:010A360000BF
:010A370000BE
:010A380000BD
:010A390000BC
:010A3A0000BB
:010A3B0000BA
:010A3C0000B9
:010A3D0000B8
:010A3E0000B7
:010A3F0000B6
:010A400000B5
:010A410000B4
:010A420000B3
:010A430000B2
:010A440000B1
:010A450000B0
:010A460000AF
:010A470000AE
:010A480004A9
:010A490004A8
:010A4A0004A7
:010A4B0004A6
:010A4C0000A9
:010A4D0000A8
:010A4E0000A7
:010A4F0000A6
:010A500000A5
:010A510000A4
:010A520000A3
:010A530000A2
:010A5400049D
:010A5500049C
:010A5600049B
:010A57000698
:010A5800029B
:010A5900029A
:010A5A000299
:010A5B00009A
:010A5C000099
:010A5D000098
:010A5E000097
:010A5F000096
:010A60000095
:010A61000490
:010A6200058E
:010A6300058D
:010A6400058C
:010A6500018F
:010A6600018E
:010A6700018D
:010A6800018C
:010A6900018B
:010A6A00018A
:010A6B000189
:010A6C000089
:010A6D000088
:010A6E000087
:010A6F000086
:010A70000085
:010A71000084
:010A72000083
:010A73000082
:010A74000081
:010A75000080
:010A7600007F
:010A7700007E
:010A7800007D
:010A7900007C
:010A7A00007B
:010A7B000278
:010A7C000277
:010A7D000276
:010A7E000275
:010A7F000076
:010A80000075
:010A81000074
:010A82000073
:010A83000072
:010A84000071
:010A85000070
:010A8600006F
:010A8700006E
:010A8800006D
:010A8900026A
:010A8A000269
:010A8B000268
:010A8C000267
:010A8D000662
:010A8E000463
:010A8F000462
:010A90000461
:010A91000163
:010A92000162
:010A93000161
:010A94000160
:010A9500025E
:010A9600005F
:010A9700005E
:010A9800005D
:010A99000458
:010A9A000556
:010A9B000555
:010A9C000554
:010A9D000157
:010A9E000057
:010A9F000056
:010AA0000055
:010AA1000450
:010AA200044F
:010AA300044E
:010AA400044D
:010AA5000050
:010AA600004F
:010AA700004E
:010AA800004D
:010AA900004C
:010AAA00004B
:010AAB00004A
:010AAC000049
:010AAD000048
:010AAE000047
:010AAF000046
:010AB0000045
:010AB1000044
:010AB2000043
:010AB3000042
:010AB4000041
:010AB5000040
:010AB600003F
:010AB700003E
:010AB800003D
:010AB900003C
:010ABA00003B
:010ABB00003A
:010ABC000039
:010ABD000038
:010ABE000037
:010ABF000036
:010AC0000035
:010AC1000034
:010AC2000033
:010AC3000032
:010AC4000031
:010AC5000030
:010AC600002F
:010AC700002E
:010AC800002D
:010AC900002C
:010ACA00002B
:010ACB00002A
:010ACC000029
:010ACD000028
:010ACE000027
:010ACF000026
:010AD0000025
:010AD1000024
:010AD2000023
:010AD3000022
:010AD4000021
:010AD5000020
:010AD600001F
:010AD700001E
:010AD800001D
:010AD900001C
:010ADA00001B
:010ADB00001A
:010ADC000019
:010ADD000018
:010ADE000017
:010ADF000016
:010AE0000015
:010AE1000014
:010AE2000013
:010AE3000012
:010AE4000011
:010AE5000010
:010AE600000F
:010AE700000E
:010AE800000D
:010AE900000C
:010AEA00000B
:010AEB00000A
:010AEC000009
:010AED000008
:010AEE000007
:010AEF000006
:010AF0000005
:010AF1000004
:010AF2000003
:010AF3000002
:010AF4000001
:010AF5000000
:010AF60000FF
:010AF70000FE
:010AF80000FD
:010AF90000FC
:010AFA0000FB
:010AFB0000FA
:010AFC0000F9
:010AFD0000F8
:010AFE0000F7
:010AFF0000F6
:010B000000F4
:010B010000F3
:010B020000F2
:010B030000F1
:010B040000F0
:010B050000EF
:010B060000EE
:010B070000ED
:010B080000EC
:010B090000EB
:010B0A0000EA
:010B0B0000E9
:010B0C0000E8
:010B0D0000E7
:010B0E0000E6
:010B0F0000E5
:010B100000E4
:010B110000E3
:010B120000E2
:010B130000E1
:010B140000E0
:010B150000DF
:010B160000DE
:010B170000DD
:010B180000DC
:010B190000DB
:010B1A0000DA
:010B1B0000D9
:010B1C0000D8
:010B1D0000D7
:010B1E0000D6
:010B1F0000D5
:010B200000D4
:010B210000D3
:010B220000D2
:010B230000D1
:010B240000D0
:010B250000CF
:010B260000CE
:010B270000CD
:010B280000CC
:010B290000CB
:010B2A0000CA
:010B2B0000C9
:010B2C0000C8
:010B2D0000C7
:010B2E0000C6
:010B2F0000C5
:010B300000C4
:010B310000C3
:010B320000C2
:010B330000C1
:010B340000C0
:010B350000BF
:010B360000BE
:010B370000BD
:010B380000BC
:010B390000BB
:010B3A0000BA
:010B3B0000B9
:010B3C0000B8
:010B3D0004B3
:010B3E0004B2
:010B3F0004B1
:010B400004B0
:010B410000B3
:010B420000B2
:010B430000B1
:010B440000B0
:010B450000AF
:010B460000AE
:010B470000AD
:010B480000AC
:010B490004A7
:010B4A0004A6
:010B4B0004A5
:010B4C0006A2
:010B4D0002A5
:010B4E0002A4
:010B4F0002A3
:010B500000A4
:010B510000A3
:010B520000A2
:010B530000A1
:010B540000A0
:010B5500009F
:010B56000599
:010B57000598
:010B58000597
:010B59000596
:010B5A000199
:010B5B000198
:010B5C000197
:010B5D000196
:010B5E000195
:010B5F000095
:010B60000094
:010B61000093
:010B62000092
:010B63000091
:010B64000090
:010B6500008F
:010B6600008E
:010B6700008D
:010B6800008C
:010B6900008B
:010B6A00008A
:010B6B000089
:010B6C000088
:010B6D000087
:010B6E000086
:010B6F000085
:010B70000282
:010B71000281
:010B72000280
:010B7300027F
:010B74000080
:010B7500007F
:010B7600007E
:010B7700007D
:010B7800007C
:010B7900007B
:010B7A00007A
:010B7B000079
:010B7C000078
:010B7D000077
:010B7E000274
:010B7F000273
:010B80000272
:010B81000271
:010B8200046E
:010B8300046D
:010B8400046C
:010B8500046B
:010B8600016D
:010B8700016C
:010B8800016B
:010B8900016A
:010B8A00006A
:010B8B000069
:010B8C000068
:010B8D000067
:010B8E000660
:010B8F00075E
:010B9000075D
:010B9100055E
:010B9200055D
:010B93000061
:010B9400025E
:010B9500025D
:010B96000658
:010B97000657
:010B98000458
:010B9900005B
:010B9A00005A
:010B9B000455
:010B9C000454
:010B9D000453
:010B9E000452
:010B9F000451
:010BA0000054
:010BA1000251
:010BA2000250
:010BA300024F
:010BA400024E
:010BA500024D
:010BA6000648
:010BA7000449
:010BA8000448
:010BA9000447
:010BAA00004A
:010BAB000049
:010BAC000048
:010BAD000047
:010BAE000442
:010BAF000441
:010BB000063E
:010BB100063D
:010BB2000240
:010BB300023F
:010BB400023E
:010BB5000639
:010BB6000638
:010BB7000637
:010BB8000636
:010BB9000239
:010BBA00003A
:010BBB000039
:010BBC000038
:010BBD000037
:010BBE000234
:010BBF000233
:010BC000062E
:010BC100062D
:010BC200042E
:010BC300042D
:010BC400042C
:010BC500042B
:010BC600042A
:010BC700022B
:010BC800022A
:010BC9000229
:010BCA000228
:010BCB000029
:010BCC000028
:010BCD000027
:010BCE000026
:010BCF000025
:010BD0000420
:010BD100061D
:010BD200061C
:010BD300061B
:010BD400061A
:010BD5000619
:010BD6000618
:010BD7000617
:010BD800021A
:010BD900001B
:010BDA00001A
:010BDB000019
:010BDC000018
:010BDD000017
:010BDE000016
:010BDF000015
:010BE0000212
:010BE1000211
:010BE2000210
:010BE300020F
:010BE400020E
:010BE500020D
:010BE6000608
:010BE7000607
:010BE8000408
:010BE9000407
:010BEA000406
:010BEB000009
:010BEC000008
:010BED000007
:010BEE000006
:010BEF000005
:010BF0000004
:010BF1000003
:010BF20004FE
:010BF30006FB
:010BF40006FA
:010BF50006F9
:010BF60006F8
:010BF70002FB
:010BF80000FC
:010BF90000FB
:010BFA0000FA
:010BFB0000F9
:010BFC0000F8
:010BFD0004F3
:010BFE0004F2
:010BFF0006EF
:010C000006ED
:010C010006EC
:010C020006EB
:010C030006EA
:010C040000EF
:010C050000EE
:010C060000ED
:010C070000EC
:010C080000EB
:010C090000EA
:010C0A0002E7
:010C0B0002E6
:010C0C0002E5
:010C0D0006E0
:010C0E0006DF
:010C0F0006DE
:010C100006DD
:010C110004DE
:010C120004DD
:010C130000E0
:010C140000DF
:010C150000DE
:010C160000DD
:010C170000DC
:010C180000DB
:010C190000DA
:010C1A0006D3
:010C1B0006D2
:010C1C0006D1
:010C1D0006D0
:010C1E0006CF
:010C1F0006CE
:010C200000D3
:010C210000D2
:010C220000D1
:010C230000D0
:010C240000CF
:010C250000CE
:010C260004C9
:010C270006C6
:010C280006C5
:010C290006C4
:010C2A0006C3
:010C2B0006C2
:010C2C0006C1
:010C2D0000C6
:010C2E0000C5
:010C2F0000C4
:010C300000C3
:010C310000C2
:010C320004BD
:010C330006BA
:010C340006B9
:010C350002BC
:010C360002BB
:010C370002BA
:010C380002B9
:010C390002B8
:010C3A0000B9
:010C3B0000B8
:010C3C0000B7
:010C3D0000B6
:010C3E0004B1
:010C3F0004B0
:010C400004AF
:010C410006AC
:010C420002AF
:010C430002AE
:010C440000AF
:010C450000AE
:010C460000AD
:010C470000AC
:010C480000AB
:010C490002A8
:010C4A0003A6
:010C4B0007A1
:010C4C0007A0
:010C4D0005A1
:010C4E0004A1
:010C4F0000A4
:010C500000A3
:010C510002A0
:010C5200029F
:010C5300029E
:010C5400029D
:010C5500009E
:010C5600009D
:010C5700009C
:010C58000299
:010C59000298
:010C5A000297
:010C5B000296
:010C5C000295
:010C5D000294
:010C5E000293
:010C5F000292
:010C60000291
:010C61000092
:010C62000091
:010C63000090
:010C6400008F
:010C6500028C
:010C6600028B
:010C6700028A
:010C68000289
:010C6900008A
:010C6A000089
:010C6B000088
:010C6C000087
:010C6D000086
:010C6E000085
:010C6F000084
:010C70000083
:010C71000082
:010C7200027F
:010C7300027E
:010C7400027D
:010C7500027C
:010C76000479
:010C77000478
:010C78000477
:010C79000476
:010C7A000079
:010C7B000177
:010C7C000176
:010C7D000175
:010C7E000174
:010C7F000074
:010C80000073
:010C81000072
:010C82000071
:010C8300036D
:010C84000768
:010C85000767
:010C86000568
:010C87000666
:010C88000269
:010C89000268
:010C8A000663
:010C8B000662
:010C8C000661
:010C8D000660
:010C8E000461
:010C8F000460
:010C9000045F
:010C9100045E
:010C9200045D
:010C9300045C
:010C94000659
:010C95000658
:010C9600025B
:010C9700025A
:010C98000259
:010C99000258
:010C9A000257
:010C9B000652
:010C9C000651
:010C9D000452
:010C9E000451
:010C9F000054
:010CA0000053
:010CA1000052
:010CA2000051
:010CA300044C
:010CA400044B
:010CA5000648
:010CA6000647
:010CA700024A
:010CA8000249
:010CA9000248
:010CAA000643
:010CAB000642
:010CAC000641
:010CAD000640
:010CAE000243
:010CAF000044
:010CB0000043
:010CB1000042
:010CB2000041
:010CB300063A
:010CB4000639
:010CB5000638
:010CB6000637
:010CB7000438
:010CB8000437
:010CB9000436
:010CBA000435
:010CBB000434
:010CBC000631
:010CBD000234
:010CBE000233
:010CBF000232
:010CC0000033
:010CC1000032
:010CC2000031
:010CC300042C
:010CC4000629
:010CC5000628
:010CC6000627
:010CC7000626
:010CC8000625
:010CC9000624
:010CCA000623
:010CCB000622
:010CCC000621
:010CCD000224
:010CCE000025
:010CCF000024
:010CD0000023
:010CD1000022
:010CD2000021
:010CD300021E
:010CD400021D
:010CD500021C
:010CD600021B
:010CD700021A
:010CD8000219
:010CD9000218
:010CDA000217
:010CDB000612
:010CDC000611
:010CDD000412
:010CDE000411
:010CDF000410
:010CE000040F
:010CE1000012
:010CE2000011
:010CE3000010
:010CE400000F
:010CE500000E
:010CE6000409
:010CE7000408
:010CE8000605
:010CE9000604
:010CEA000603
:010CEB000602
:010CEC000205
:010CED000204
:010CEE000005
:010CEF000004
:010CF00004FF
:010CF10004FE
:010CF20004FD
:010CF30006FA
:010CF40006F9
:010CF50006F8
:010CF60006F7
:010CF70006F6
:010CF80006F5
:010CF90004F6
:010CFA0000F9
:010CFB0000F8
:010CFC0000F7
:010CFD0002F4
:010CFE0002F3
:010CFF0002F2
:010D000006EC
:010D010006EB
:010D020006EA
:010D030006E9
:010D040006E8
:010D050006E7
:010D060006E6
:010D070004E7
:010D080004E6
:010D090000E9
:010D0A0000E8
:010D0B0000E7
:010D0C0000E6
:010D0D0006DF
:010D0E0006DE
:010D0F0006DD
:010D100006DC
:010D110006DB
:010D120006DA
:010D130006D9
:010D140006D8
:010D150006D7
:010D160000DC
:010D170000DB
:010D180000DA
:010D190004D5
:010D1A0006D2
:010D1B0006D1
:010D1C0006D0
:010D1D0006CF
:010D1E0006CE
:010D1F0006CD
:010D200006CC
:010D210006CB
:010D220006CA
:010D230000CF
:010D240000CE
:010D250000CD
:010D260006C6
:010D270006C5
:010D280006C4
:010D290006C3
:010D2A0002C6
:010D2B0002C5
:010D2C0002C4
:010D2D0002C3
:010D2E0002C2
:010D2F0002C1
:010D300000C2
:010D310000C1
:010D320000C0
:010D330004BB
:010D340004BA
:010D350006B7
:010D360006B6
:010D370002B9
:010D380002B8
:010D390000B9
:010D3A0000B8
:010D3B0000B7
:010D3C0000B6
:010D3D0000B5
:010D3E0002B2
:010D3F0003B0
:010D400003AF
:010D410007AA
:010D420005AB
:010D430004AB
:010D440004AA
:010D450000AD
:010D460002AA
:010D470002A9
:010D480002A8
:010D490002A7
:010D4A0000A8
:010D4B0000A7
:010D4C0000A6
:010D4D0002A3
:010D4E0002A2
:010D4F0002A1
:010D500002A0
:010D5100029F
:010D5200029E
:010D5300029D
:010D5400029C
:010D5500029B
:010D5600009C
:010D5700009B
:010D5800009A
:010D59000099
:010D5A000098
:010D5B000295
:010D5C000294
:010D5D000293
:010D5E000292
:010D5F000093
:010D60000092
:010D61000091
:010D62000090
:010D6300008F
:010D6400008E
:010D6500008D
:010D6600008C
:010D67000289
:010D68000288
:010D69000287
:010D6A000286
:010D6B000483
:010D6C000482
:010D6D000481
:010D6E000480
:010D6F000083
:010D70000181
:010D71000180
:010D7200017F
:010D7300017E
:010D7400007E
:010D7500007D
:010D7600007C
:010D7700007B
:010D78000377
:010D79000772
:010D7A000771
:010D7B000770
:010D7C000670
:010D7D000273
:010D7E000272
:010D7F00066D
:010D8000066C
:010D8100066B
:010D8200066A
:010D83000669
:010D84000569
:010D85000568
:010D86000567
:010D87000566
:010D88000763
:010D89000762
:010D8A000662
:010D8B000661
:010D8C000264
:010D8D000263
:010D8E000262
:010D8F000261
:010D9000065C
:010D9100065B
:010D9200065A
:010D9300055A
:010D9400015D
:010D9500015C
:010D9600015B
:010D9700015A
:010D98000555
:010D99000554
:010D9A000751
:010D9B000750
:010D9C000353
:010D9D000253
:010D9E000252
:010D9F00064D
:010DA000064C
:010DA100074A
:010DA2000749
:010DA300034C
:010DA400014D
:010DA500004D
:010DA600004C
:010DA700004B
:010DA8000644
:010DA9000643
:010DAA000642
:010DAB000740
:010DAC000541
:010DAD000540
:010DAE000440
:010DAF00043F
:010DB000043E
:010DB100073A
:010DB2000739
:010DB300033C
:010DB400033B
:010DB500003D
:010DB600003C
:010DB7000437
:010DB8000634
:010DB9000732
:010DBA000731
:010DBB000730
:010DBC00072F
:010DBD00062F
:010DBE00062E
:010DBF00062D
:010DC000062C
:010DC100062B
:010DC200022E
:010DC300002F
:010DC400012D
:010DC500012C
:010DC600012B
:010DC7000328
:010DC8000327
:010DC9000326
:010DCA000226
:010DCB000225
:010DCC000224
:010DCD000223
:010DCE000222
:010DCF000221
:010DD000061C
:010DD100061B
:010DD200041C
:010DD300051A
:010DD4000519
:010DD5000518
:010DD600011B
:010DD700011A
:010DD8000119
:010DD9000019
:010DDA000018
:010DDB000512
:010DDC000511
:010DDD00070E
:010DDE00070D
:010DDF00070C
:010DE000070B
:010DE100030E
:010DE200030D
:010DE300010E
:010DE400010D
:010DE5000508
:010DE6000507
:010DE7000407
:010DE8000604
:010DE9000702
:010DEA000701
:010DEB000700
:010DEC0007FF
:010DED0007FE
:010DEE0005FF
:010DEF0005FE
:010DF0000101
:010DF1000100
:010DF20002FE
:010DF30002FD
:010DF40006F8
:010DF50006F7
:010DF60006F6
:010DF70006F5
:010DF80006F4
:010DF90006F3
:010DFA0006F2
:010DFB0007F0
:010DFC0007EF
:010DFD0005F0
:010DFE0001F3
:010DFF0001F2
:010E000001F0
:010E010006EA
:010E020006E9
:010E030006E8
:010E040006E7
:010E050006E6
:010E060006E5
:010E070006E4
:010E080006E3
:010E090006E2
:010E0A0006E1
:010E0B0000E6
:010E0C0000E5
:010E0D0000E4
:010E0E0006DD
:010E0F0007DB
:010E100007DA
:010E110007D9
:010E120006D9
:010E130006D8
:010E140007D6
:010E150007D5
:010E160007D4
:010E170007D3
:010E180005D4
:010E190000D8
:010E1A0000D7
:010E1B0006D0
:010E1C0006CF
:010E1D0006CE
:010E1E0006CD
:010E1F0003CF
:010E200003CE
:010E210003CD
:010E220003CC
:010E230002CC
:010E240002CB
:010E250002CA
:010E260000CB
:010E270000CA
:010E280004C5
:010E290004C4
:010E2A0006C1
:010E2B0006C0
:010E2C0002C3
:010E2D0003C1
:010E2E0001C2
:010E2F0001C1
:010E300000C1
:010E310000C0
:010E320000BF
:010E330002BC
:010E340003BA
:010E350003B9
:010E360007B4
:010E370004B6
:010E380004B5
:010E390005B3
:010E3A0003B4
:010E3B0003B3
:010E3C0003B2
:010E3D0003B1
:010E3E0000B3
:010E3F0000B2
:010E400000B1
:010E410000B0
:010E420002AD
:010E430002AC
:010E440002AB
:010E450002AA
:010E460002A9
:010E470002A8
:010E480002A7
:010E490002A6
:010E4A0002A5
:010E4B0000A6
:010E4C0000A5
:010E4D0000A4
:010E4E0000A3
:010E4F0000A2
:010E5000029F
:010E5100029E
:010E5200029D
:010E5300029C
:010E5400009D
:010E5500009C
:010E5600009B
:010E5700009A
:010E58000099
:010E59000098
:010E5A000097
:010E5B000096
:010E5C000293
:010E5D000292
:010E5E000291
:010E5F000290
:010E6000048D
:010E6100048C
:010E6200048B
:010E6300048A
:010E6400008D
:010E6500018B
:010E6600018A
:010E67000189
:010E68000188
:010E69000088
:010E6A000087
:010E6B000086
:010E6C000184
:010E6D000381
:010E6E00077C
:010E6F00077B
:010E7000077A
:010E7100067A
:010E7200007F
:010E7300007E
:010E74000479
:010E75000676
:010E76000675
:010E77000773
:010E78000772
:010E79000771
:010E7A000176
:010E7B000175
:010E7C000174
:010E7D00076D
:010E7E00076C
:010E7F00076B
:010E8000076A
:010E8100046C
:010E8200006F
:010E8300006E
:010E8400026B
:010E85000666
:010E86000665
:010E87000664
:010E88000762
:010E89000167
:010E8A000166
:010E8B000165
:010E8C000164
:010E8D00055F
:010E8E00055E
:010E8F00075B
:010E9000075A
:010E9100035D
:010E9200005F
:010E9300005E
:010E94000459
:010E95000656
:010E96000754
:010E97000753
:010E98000356
:010E99000157
:010E9A000057
:010E9B000056
:010E9C000055
:010E9D00064E
:010E9E00064D
:010E9F00034F
:010EA000034E
:010EA100014F
:010EA200014E
:010EA300004E
:010EA4000449
:010EA5000448
:010EA6000744
:010EA7000743
:010EA8000346
:010EA9000345
:010EAA000047
:010EAB000046
:010EAC000441
:010EAD00063E
:010EAE00073C
:010EAF00073B
:010EB000033E
:010EB100013F
:010EB200003F
:010EB300043A
:010EB4000637
:010EB5000636
:010EB6000635
:010EB7000337
:010EB8000138
:010EB9000137
:010EBA000136
:010EBB000135
:010EBC000332
:010EBD000331
:010EBE000330
:010EBF00032F
:010EC0000031
:010EC1000030
:010EC200002F
:010EC300022C
:010EC400022B
:010EC5000626
:010EC6000724
:010EC7000525
:010EC8000128
:010EC9000523
:010ECA000522
:010ECB000521
:010ECC000124
:010ECD000123
:010ECE000122
:010ECF00041E
:010ED000051C
:010ED100051B
:010ED200031C
:010ED3000717
:010ED4000716
:010ED5000517
:010ED6000318
:010ED7000317
:010ED8000316
:010ED9000117
:010EDA000512
:010EDB000511
:010EDC000213
:010EDD000212
:010EDE000310
:010EDF000111
:010EE000030E
:010EE1000709
:010EE2000708
:010EE3000509
:010EE4000508
:010EE500010B
:010EE600010A
:010EE7000307
:010EE8000306
:010EE9000404
:010EEA000403
:010EEB000402
:010EEC000401
:010EED000004
:010EEE000300
:010EEF0003FF
:010EF00003FE
:010EF10007F9
:010EF20005FA
:010EF30001FD
:010EF40001FC
:010EF50001FB
:010EF60007F4
:010EF70007F3
:010EF80006F3
:010EF90006F2
:010EFA0000F7
:010EFB0000F6
:010EFC0000F5
:010EFD0000F4
:010EFE0006ED
:010EFF0006EC
:010F000000F0
:010F010000EF
:010F020000EE
:010F030006E7
:010F040007E5
:010F050003E8
:010F060003E7
:010F070000E9
:010F080001E7
:010F090001E6
:010F0A0005E1
:010F0B0007DE
:010F0C0007DD
:010F0D0005DE
:010F0E0001E1
:010F0F0000E1
:010F100006DA
:010F110006D9
:010F120004DA
:010F130004D9
:010F140001DB
:010F150001DA
:010F160001D9
:010F170003D6
:010F180002D6
:010F190002D5
:010F1A0002D4
:010F1B0000D5
:010F1C0000D4
:010F1D0004CF
:010F1E0004CE
:010F1F0006CB
:010F200006CA
:010F210003CC
:010F220003CB
:010F230001CC
:010F240001CB
:010F250000CB
:010F260000CA
:010F270000C9
:010F280002C6
:010F290003C4
:010F2A0003C3
:010F2B0007BE
:010F2C0005BF
:010F2D0005BE
:010F2E0005BD
:010F2F0003BE
:010F300003BD
:010F310003BC
:010F320003BB
:010F330001BC
:010F340000BC
:010F350000BB
:010F360000BA
:010F370002B7
:010F380002B6
:010F390002B5
:010F3A0002B4
:010F3B0000B5
:010F3C0000B4
:010F3D0000B3
:010F3E0000B2
:010F3F0000B1
:010F400000B0
:010F410000AF
:010F420000AE
:010F430000AD
:010F440000AC
:010F450002A9
:010F460002A8
:010F470002A7
:010F480002A6
:010F490000A7
:010F4A0000A6
:010F4B0000A5
:010F4C0000A4
:010F4D0000A3
:010F4E0000A2
:010F4F0000A1
:010F500000A0
:010F5100029D
:010F5200029C
:010F5300029B
:010F5400029A
:010F55000497
:010F56000496
:010F57000495
:010F58000494
:010F59000097
:010F5A000195
:010F5B000194
:010F5C000193
:010F5D000192
:010F5E000092
:010F5F000091
:010F60000090
:010F6100018E
:010F6200038B
:010F63000786
:010F64000785
:010F65000685
:010F66000486
:010F67000089
:010F68000088
:010F69000483
:010F6A000482
:010F6B00077E
:010F6C00077D
:010F6D000380
:010F6E00037F
:010F6F000180
:010F7000017F
:010F7100037C
:010F7200037B
:010F73000776
:010F74000775
:010F75000576
:010F76000575
:010F77000079
:010F78000078
:010F79000077
:010F7A000670
:010F7B00066F
:010F7C00066E
:010F7D00076C
:010F7E000171
:010F7F000170
:010F8000016F
:010F8100016E
:010F82000569
:010F83000766
:010F84000765
:010F85000764
:010F86000367
:010F87000069
:010F88000068
:010F89000463
:010F8A000660
:010F8B00075E
:010F8C00075D
:010F8D000360
:010F8E000161
:010F8F000061
:010F90000060
:010F9100005F
:010F9200025C
:010F9300035A
:010F94000359
:010F95000358
:010F96000159
:010F97000158
:010F98000058
:010F99000453
:010F9A000452
:010F9B00074E
:010F9C00074D
:010F9D000350
:010F9E00034F
:010F9F000051
:010FA0000050
:010FA100044B
:010FA2000648
:010FA3000746
:010FA4000745
:010FA5000348
:010FA6000149
:010FA7000049
:010FA8000444
:010FA9000641
:010FAA000640
:010FAB00073E
:010FAC000341
:010FAD000142
:010FAE000141
:010FAF000140
:010FB000013F
:010FB100033C
:010FB200033B
:010FB300033A
:010FB4000339
:010FB500013A
:010FB600003A
:010FB7000039
:010FB8000236
:010FB9000235
:010FBA00072F
:010FBB00072E
:010FBC00052F
:010FBD000132
:010FBE00052D
:010FBF00052C
:010FC000052B
:010FC100012E
:010FC200012D
:010FC300012C
:010FC4000428
:010FC5000526
:010FC6000525
:010FC7000326
:010FC8000721
:010FC9000720
:010FCA000521
:010FCB000322
:010FCC000321
:010FCD000320
:010FCE000121
:010FCF000120
:010FD000011F
:010FD100021D
:010FD200021C
:010FD300031A
:010FD400011B
:010FD5000318
:010FD6000713
:010FD7000712
:010FD8000513
:010FD9000512
:010FDA000115
:010FDB000114
:010FDC000113
:010FDD00050E
:010FDE00040E
:010FDF00040D
:010FE000040C
:010FE100000F
:010FE200010D
:010FE300030A
:010FE4000309
:010FE5000308
:010FE6000307
:010FE7000108
:010FE8000107
:010FE9000106
:010FEA0007FF
:010FEB0007FE
:010FEC0007FD
:010FED0007FC
:010FEE000002
:010FEF000001
:010FF0000000
:010FF10000FF
:010FF20000FE
:010FF30000FD
:010FF40000FC
:010FF50000FB
:010FF60000FA
:010FF70002F7
:010FF80002F6
:010FF90003F4
:010FFA0003F3
:010FFB0001F4
:010FFC0001F3
:010FFD0001F2
:010FFE0001F1
:010FFF0005EC
:0110000005EA
:0110010005E9
:0110020005E8
:0110030001EB
:0110040001EA
:0110050004E6
:0110060004E5
:0110070004E4
:0110080004E3
:0110090001E5
:01100A0001E4
:01100B0001E3
:01100C0003E0
:01100D0002E0
:01100E0002DF
:01100F0002DE
:0110100000DF
:0110110000DE
:0110120004D9
:0110130004D8
:0110140006D5
:0110150006D4
:0110160003D6
:0110170003D5
:0110180001D6
:0110190001D5
:01101A0000D5
:01101B0000D4
:01101C0000D3
:01101D0003CF
:01101E0003CE
:01101F0003CD
:0110200007C8
:0110210005C9
:0110220005C8
:0110230007C5
:0110240003C8
:0110250003C7
:0110260003C6
:0110270001C7
:0110280001C6
:0110290001C5
:01102A0000C5
:01102B0000C4
:01102C0002C1
:01102D0002C0
:01102E0002BF
:01102F0002BE
:0110300000BF
:0110310000BE
:0110320000BD
:0110330000BC
:0110340000BB
:0110350000BA
:0110360000B9
:0110370000B8
:0110380000B7
:0110390000B6
:01103A0002B3
:01103B0002B2
:01103C0002B1
:01103D0002B0
:01103E0000B1
:01103F0000B0
:0110400000AF
:0110410000AE
:0110420000AD
:0110430000AC
:0110440000AB
:0110450000AA
:0110460002A7
:0110470002A6
:0110480002A5
:0110490002A4
:01104A0004A1
:01104B0004A0
:01104C00049F
:01104D00049E
:01104E0000A1
:01104F00019F
:01105000019E
:01105100019D
:01105200019C
:01105300019B
:01105400019A
:011055000199
:011056000198
:011057000395
:011058000790
:011059000690
:01105A00068F
:01105B000490
:01105C000093
:01105D000092
:01105E00048D
:01105F00048C
:011060000788
:011061000787
:01106200038A
:011063000389
:01106400008B
:01106500008A
:011066000287
:011067000286
:011068000780
:01106900077F
:01106A00077E
:01106B00077D
:01106C000281
:01106D000280
:01106E00027F
:01106F00067A
:011070000679
:011071000678
:011072000776
:01107300017B
:01107400017A
:011075000179
:011076000079
:011077000474
:011078000770
:01107900076F
:01107A00076E
:01107B000371
:01107C000073
:01107D000072
:01107E00046D
:01107F00066A
:011080000768
:011081000767
:01108200036A
:01108300016B
:01108400006B
:01108500006A
:011086000069
:011087000365
:011088000364
:01108900075F
:01108A00075E
:01108B00075D
:01108C00075C
:01108D00065C
:01108E00065B
:01108F00065A
:011090000758
:011091000757
:01109200035A
:011093000359
:01109400005B
:01109500005A
:011096000455
:011097000652
:011098000750
:01109900074F
:01109A000352
:01109B000153
:01109C000053
:01109D00044E
:01109E00064B
:01109F00064A
:0110A0000748
:0110A100034B
:0110A200014C
:0110A300014B
:0110A400004B
:0110A500004A
:0110A6000247
:0110A7000345
:0110A8000344
:0110A9000343
:0110AA000144
:0110AB000044
:0110AC000043
:0110AD000240
:0110AE00063B
:0110AF000739
:0110B0000738
:0110B1000539
:0110B200013C
:0110B3000438
:0110B4000437
:0110B5000436
:0110B6000039
:0110B7000137
:0110B8000136
:0110B9000432
:0110BA000431
:0110BB00062E
:0110BC000231
:0110BD00062C
:0110BE00072A
:0110BF00052B
:0110C0000728
:0110C100032B
:0110C200022B
:0110C300002C
:0110C400002B
:0110C500002A
:0110C6000623
:0110C7000622
:0110C8000720
:0110C9000521
:0110CA00071E
:0110CB00061E
:0110CC00061D
:0110CD00061C
:0110CE00041D
:0110CF000020
:0110D000011E
:0110D100011D
:0110D2000518
:0110D3000616
:0110D4000615
:0110D5000614
:0110D6000217
:0110D7000315
:0110D8000314
:0110D9000313
:0110DA000312
:0110DB000212
:0110DC000013
:0110DD000012
:0110DE000011
:0110DF000709
:0110E0000708
:0110E1000707
:0110E2000706
:0110E300000C
:0110E400000B
:0110E500000A
:0110E6000009
:0110E7000008
:0110E8000007
:0110E9000006
:0110EA000005
:0110EB000004
:0110EC000201
:0110ED000200
:0110EE0003FE
:0110EF0007F9
:0110F00005FA
:0110F10005F9
:0110F20005F8
:0110F30004F8
:0110F40004F7
:0110F50004F6
:0110F60005F4
:0110F70005F3
:0110F80001F6
:0110F90001F5
:0110FA0005F0
:0110FB0004F0
:0110FC0006ED
:0110FD0006EC
:0110FE0003EE
:0110FF0003ED
:0111000003EB
:0111010003EA
:0111020002EA
:0111030002E9
:0111040002E8
:0111050000E9
:0111060000E8
:0111070004E3
:0111080004E2
:0111090006DF
:01110A0006DE
:01110B0003E0
:01110C0003DF
:01110D0001E0
:01110E0001DF
:01110F0000DF
:0111100000DE
:0111110000DD
:0111120003D9
:0111130003D8
:0111140003D7
:0111150007D2
:0111160007D1
:0111170007D0
:0111180006D0
:0111190002D3
:01111A0002D2
:01111B0001D2
:01111C0001D1
:01111D0001D0
:01111E0001CF
:01111F0001CE
:0111200000CE
:0111210002CB
:0111220002CA
:0111230002C9
:0111240002C8
:0111250000C9
:0111260000C8
:0111270000C7
:0111280000C6
:0111290000C5
:01112A0000C4
:01112B0000C3
:01112C0000C2
:01112D0000C1
:01112E0000C0
:01112F0002BD
:0111300002BC
:0111310002BB
:0111320002BA
:0111330000BB
:0111340000BA
:0111350000B9
:0111360000B8
:0111370000B7
:0111380000B6
:0111390000B5
:01113A0000B4
:01113B0002B1
:01113C0002B0
:01113D0002AF
:01113E0002AE
:01113F0004AB
:0111400004AA
:0111410004A9
:0111420004A8
:0111430000AB
:0111440001A9
:0111450001A8
:0111460001A7
:0111470001A6
:0111480001A5
:0111490001A4
:01114A0001A3
:01114B0001A2
:01114C00039F
:01114D00069B
:01114E00069A
:01114F000699
:01115000049A
:01115100009D
:01115200009C
:011153000497
:011154000595
:011155000792
:011156000791
:011157000394
:011158000294
:011159000095
:01115A000094
:01115B000291
:01115C000290
:01115D00068B
:01115E000789
:01115F000788
:011160000787
:01116100038A
:01116200028A
:011163000289
:011164000684
:011165000683
:011166000682
:011167000780
:011168000185
:011169000184
:01116A000183
:01116B000083
:01116C00047E
:01116D00077A
:01116E000779
:01116F000778
:01117000017D
:01117100007D
:01117200007C
:011173000477
:011174000674
:011175000772
:011176000771
:011177000374
:011178000175
:011179000075
:01117A000074
:01117B000172
:01117C00076B
:01117D00076A
:01117E000769
:01117F000768
:011180000767
:011181000766
:011182000666
:011183000665
:011184000664
:011185000762
:011186000761
:011187000364
:011188000363
:011189000065
:01118A000064
:01118B000063
:01118C00045E
:01118D00075A
:01118E000759
:01118F000758
:011190000757
:011191000657
:011192000656
:011193000655
:011194000753
:011195000752
:011196000355
:011197000156
:011198000056
:011199000055
:01119A000054
:01119B000053
:01119C000250
:01119D00034E
:01119E00034D
:01119F00034C
:0111A000034B
:0111A100024B
:0111A200024A
:0111A3000744
:0111A4000743
:0111A5000742
:0111A6000543
:0111A7000047
:0111A8000046
:0111A9000441
:0111AA000440
:0111AB00043F
:0111AC000042
:0111AD00043D
:0111AE00043C
:0111AF00043B
:0111B000023C
:0111B100023B
:0111B2000636
:0111B3000734
:0111B4000535
:0111B5000534
:0111B6000335
:0111B7000235
:0111B8000234
:0111B9000431
:0111BA00062E
:0111BB00062D
:0111BC00062C
:0111BD00052C
:0111BE00052B
:0111BF000728
:0111C0000628
:0111C1000627
:0111C2000626
:0111C3000427
:0111C400002A
:0111C5000128
:0111C6000325
:0111C7000720
:0111C8000620
:0111C900061F
:0111CA00061E
:0111CB000320
:0111CC00031F
:0111CD00031E
:0111CE00031D
:0111CF00021D
:0111D000021C
:0111D100001D
:0111D200001C
:0111D300001B
:0111D4000614
:0111D5000712
:0111D6000711
:0111D7000710
:0111D8000115
:0111D9000015
:0111DA000014
